{
  "abi": [
    {
      "inputs": [],
      "stateMutability": "nonpayable",
      "type": "constructor"
    },
    {
      "inputs": [],
      "name": "DirectAuctionCreate",
      "type": "error"
    },
    {
      "inputs": [],
      "name": "InvalidERC721ReceiveData",
      "type": "error"
    },
    {
      "anonymous": false,
      "inputs": [
        {
          "indexed": true,
          "internalType": "address",
          "name": "auction",
          "type": "address"
        },
        {
          "indexed": true,
          "internalType": "address",
          "name": "collection",
          "type": "address"
        },
        {
          "indexed": true,
          "internalType": "uint256",
          "name": "tokenId",
          "type": "uint256"
        },
        {
          "indexed": false,
          "internalType": "uint256",
          "name": "revealStartBlock",
          "type": "uint256"
        }
      ],
      "name": "AuctionCreated",
      "type": "event"
    },
    {
      "inputs": [],
      "name": "auctionImplementation",
      "outputs": [
        {
          "internalType": "address",
          "name": "",
          "type": "address"
        }
      ],
      "stateMutability": "view",
      "type": "function"
    },
    {
      "inputs": [
        {
          "internalType": "address",
          "name": "_beneficiary",
          "type": "address"
        },
        {
          "internalType": "address",
          "name": "_collection",
          "type": "address"
        },
        {
          "internalType": "uint256",
          "name": "_tokenId",
          "type": "uint256"
        },
        {
          "internalType": "uint256",
          "name": "_revealStartBlock",
          "type": "uint256"
        }
      ],
      "name": "createAuction",
      "outputs": [],
      "stateMutability": "nonpayable",
      "type": "function"
    },
    {
      "inputs": [
        {
          "internalType": "address",
          "name": "",
          "type": "address"
        },
        {
          "internalType": "uint256",
          "name": "",
          "type": "uint256"
        }
      ],
      "name": "internalCreateAuction",
      "outputs": [],
      "stateMutability": "nonpayable",
      "type": "function"
    },
    {
      "inputs": [
        {
          "internalType": "address",
          "name": "",
          "type": "address"
        }
      ],
      "name": "isAuction",
      "outputs": [
        {
          "internalType": "bool",
          "name": "",
          "type": "bool"
        }
      ],
      "stateMutability": "view",
      "type": "function"
    },
    {
      "inputs": [
        {
          "internalType": "address",
          "name": "",
          "type": "address"
        },
        {
          "internalType": "address",
          "name": "",
          "type": "address"
        },
        {
          "internalType": "uint256",
          "name": "_tokenId",
          "type": "uint256"
        },
        {
          "internalType": "bytes",
          "name": "_data",
          "type": "bytes"
        }
      ],
      "name": "onERC721Received",
      "outputs": [
        {
          "internalType": "bytes4",
          "name": "",
          "type": "bytes4"
        }
      ],
      "stateMutability": "nonpayable",
      "type": "function"
    }
  ],
  "bytecode": {
    "object": "0x60a060405234801561001057600080fd5b5060405161001d9061004b565b604051809103906000f080158015610039573d6000803e3d6000fd5b506001600160a01b0316608052610058565b610eb98061071883390190565b60805161069f6100796000396000818160a70152610281015261069f6000f3fe608060405234801561001057600080fd5b50600436106100575760003560e01c8063150b7a021461005c578063399c15b71461008d5780636a7f3f6c146100a25780638ebde500146100e1578063a7bf938d14610114575b600080fd5b61006f61006a3660046104c5565b610127565b6040516001600160e01b031990911681526020015b60405180910390f35b6100a061009b3660046105a5565b610241565b005b6100c97f000000000000000000000000000000000000000000000000000000000000000081565b6040516001600160a01b039091168152602001610084565b6101046100ef3660046105d1565b60006020819052908152604090205460ff1681565b6040519015158152602001610084565b6100a06101223660046105f5565b61025a565b60208101516000906001600160e01b0319811663399c15b760e01b1461016057604051635f491c4360e01b815260040160405180910390fd5b82516003198101600485019081529360009182916101869181016020019060240161063b565b60405163a7bf938d60e01b81526001600160a01b038316600482015233602482015260448101899052606481018290529193509150309063a7bf938d90608401600060405180830381600087803b1580156101e057600080fd5b505af19250505080156101f1575060015b61022d573d80801561021f576040519150601f19603f3d011682016040523d82523d6000602084013e610224565b606091505b50805160208201fd5b50630a85bd0160e11b979650505050505050565b604051630e09e72f60e41b815260040160405180910390fd5b33301461027a57604051630e09e72f60e41b815260040160405180910390fd5b60006102a57f00000000000000000000000000000000000000000000000000000000000000006103f6565b600085815260208590526040908190209051631b7ce04160e01b81526001600160a01b03888116600483015260248201869052604482018390529293509091831690631b7ce04190606401600060405180830381600087803b15801561030a57600080fd5b505af115801561031e573d6000803e3d6000fd5b5050506001600160a01b0380841660008181526020819052604090819020805460ff1916600117905551879350918816917fae654d602733e5af7f01c9bdc66adeb293b7a3c878db8d567c544e89397d2fb59061037e9088815260200190565b60405180910390a46040516323b872dd60e01b81523060048201526001600160a01b038381166024830152604482018690528616906323b872dd90606401600060405180830381600087803b1580156103d657600080fd5b505af11580156103ea573d6000803e3d6000fd5b50505050505050505050565b6000604051733d602d80600a3d3981f3363d3d373d3d3d363d7360601b81528260601b60148201526e5af43d82803e903d91602b57fd5bf360881b60288201526037816000f09150506001600160a01b0381166104925760405162461bcd60e51b8152602060048201526016602482015275115490cc4c4d8dce8818dc99585d194819985a5b195960521b604482015260640160405180910390fd5b919050565b6001600160a01b03811681146104ac57600080fd5b50565b634e487b7160e01b600052604160045260246000fd5b600080600080608085870312156104db57600080fd5b84356104e681610497565b935060208501356104f681610497565b925060408501359150606085013567ffffffffffffffff8082111561051a57600080fd5b818701915087601f83011261052e57600080fd5b813581811115610540576105406104af565b604051601f8201601f19908116603f01168101908382118183101715610568576105686104af565b816040528281528a602084870101111561058157600080fd5b82602086016020830137600060208483010152809550505050505092959194509250565b600080604083850312156105b857600080fd5b82356105c381610497565b946020939093013593505050565b6000602082840312156105e357600080fd5b81356105ee81610497565b9392505050565b6000806000806080858703121561060b57600080fd5b843561061681610497565b9350602085013561062681610497565b93969395505050506040820135916060013590565b6000806040838503121561064e57600080fd5b825161065981610497565b602093909301519294929350505056fea26469706673582212209a37328bcc3d1e56a55a4a8c091ecd179c164b1a8deb84f468d891acdd4a7b1f64736f6c634300080f0033608060405234801561001057600080fd5b5061deae600160a01b0319600155610e8c8061002d6000396000f3fe6080604052600436106100ec5760003560e01c8063ac9650d81161008a578063cd18a2a611610059578063cd18a2a6146102a4578063ce3a3710146102c4578063d188987f14610301578063f2fde38b1461032157600080fd5b8063ac9650d81461021a578063ad72202b1461023a578063b0bf74c11461024f578063becddc3d1461026557600080fd5b8063636bf730116100c6578063636bf7301461017757806368c10505146101af5780636aacd616146101d65780638da5cb5b146101fa57600080fd5b806301333f06146100f85780631b7ce0411461013557806352d112381461015757600080fd5b366100f357005b600080fd5b34801561010457600080fd5b50600354610118906001600160a01b031681565b6040516001600160a01b0390911681526020015b60405180910390f35b34801561014157600080fd5b50610155610150366004610b69565b610341565b005b34801561016357600080fd5b50610155610172366004610b9c565b610402565b34801561018357600080fd5b50600454610197906001600160801b031681565b6040516001600160801b03909116815260200161012c565b3480156101bb57600080fd5b5060045461019790600160801b90046001600160801b031681565b3480156101e257600080fd5b506101ec60055481565b60405190815260200161012c565b34801561020657600080fd5b50600154610118906001600160a01b031681565b61022d610228366004610bb7565b610433565b60405161012c9190610c2c565b34801561024657600080fd5b506101556104b2565b34801561025b57600080fd5b506101ec60025481565b34801561027157600080fd5b5060015461028c90600160a01b90046001600160601b031681565b6040516001600160601b03909116815260200161012c565b3480156102b057600080fd5b506101556102bf366004610cc7565b61056c565b3480156102d057600080fd5b506102e46102df366004610b69565b61073d565b604080519283526001600160a01b0390911660208301520161012c565b34801561030d57600080fd5b5061011861031c366004610d07565b61078d565b34801561032d57600080fd5b5061015561033c366004610b9c565b610a16565b6001546001600160a01b03161561036a5760405162dc149f60e41b815260040160405180910390fd5b6001600160a01b0383166103915760405163267eaa8160e21b815260040160405180910390fd5b4382116103b1576040516317a53f2360e11b815260040160405180910390fd5b6001600160a01b038316600160a01b6001600160601b0384160281176001556040516000907f8be0079c531659141344cd1fd0a4f28419497f9722a3daafe3b4186f6b6457e0908290a36005555050565b6001600160a01b03811660009081526020819052604081208054919055801561042f5761042f8282610acc565b5050565b606081156104ac5750604051818152602001600582901b808483378101805b825185018035602082018337600080823584305af4610475573d6000803e3d6000fd5b508083526020830192503d81523d6000602083013e3d01603f0167ffffffffffffffe0168183106104525760405192508060405250505b92915050565b600254156104d357604051635da6a4a160e11b815260040160405180910390fd5b600154600160a01b90046001600160601b03164381111561050757604051638bbce02d60e01b815260040160405180910390fd5b61051c61051661010043610dfc565b82610b26565b40600255600180546001600160a01b0316600160a01b436001600160601b0316021790556040517f3bcc93d35219aa0512d7c0d1ca10b0231f473e3d5f9396877d1b7215ee0ab3d590600090a150565b600154439061058d90600160a01b90046001600160601b0316611c20610e13565b6001600160601b0316106105b45760405163b317752160e01b815260040160405180910390fd5b600082815260208290526040902060055481146105e457604051630309809960e31b815260040160405180910390fd5b600354604051632142170760e11b81523060048201526001600160a01b03918216602482015260448101849052908416906342842e0e90606401600060405180830381600087803b15801561063857600080fd5b505af115801561064c573d6000803e3d6000fd5b5050600060058190556003546004546001600160a01b0390911693506001600160801b03600160801b82048116935061068791849116610dfc565b905080600080856001600160a01b03166001600160a01b0316815260200190815260200160002060008282546106bd9190610e3e565b90915550506001546001600160a01b0316600090815260208190526040812080548492906106ec908490610e3e565b909155505060408051838152602081018390526001600160a01b038516917f32c1ffa2d64a48a72c24ae3e096197a2f77804340592434296903bbf76981632910160405180910390a2505050505050565b673d3d3d3d47335af16000526008601820604080519485526020850193909352918301526060822030601484015260ff83526034830181905260548301919091526055601f909201919091209091565b600154600090819043906107b390600160a01b90046001600160601b0316611c20610e13565b6001600160601b031610156107db576040516328c79d5560e11b815260040160405180910390fd5b600254806107fc57604051630a542d4360e01b815260040160405180910390fd5b60008061080a8a8a8a61073d565b90925090506000479050673d3d3d3d47335af160005282600860186000f595506108348147610dfc565b94505050505060006108468786610b3e565b905060006108548284610dfc565b6004546003549192506001600160801b0380821692600160801b90920416906001600160a01b031682851115610933576001600160a01b038116158015906108a557506000836001600160801b0316115b156108e1576001600160a01b038116600090815260208190526040812080546001600160801b03861692906108db908490610e3e565b90915550505b5050600380546001600160a01b038c166001600160a01b03199091161790556001600160801b03838116908216600160801b026fffffffffffffffffffffffffffffffff19161760045582908a610978565b600454600160801b90046001600160801b031685111561096b57600480546001600160801b03808816600160801b0291161790558491505b6109758585610e3e565b93505b83156109ac576001600160a01b038c16600090815260208190526040812080548692906109a6908490610e3e565b90915550505b604080516001600160801b038086168252841660208201529081018690526001600160a01b03808e1691908316907f7f749dfc3f8dd6da5dd55f4ded584b12b39d0dc9f9333f3a467f75d44a4e96cb9060600160405180910390a350505050505095945050505050565b6001600160a01b038116610a3d57604051634e08abab60e01b815260040160405180910390fd5b6001546001600160a01b0316338114610a69576040516330cd747160e01b815260040160405180910390fd5b816001600160a01b0316816001600160a01b03167f8be0079c531659141344cd1fd0a4f28419497f9722a3daafe3b4186f6b6457e060405160405180910390a350600180546001600160a01b0319166001600160a01b0392909216919091179055565b600080600080600085875af1905080610b215760405162461bcd60e51b815260206004820152601360248201527211551217d514905394d1915497d19052531151606a1b604482015260640160405180910390fd5b505050565b6000818311610b355781610b37565b825b9392505050565b6000818310610b355781610b37565b80356001600160a01b0381168114610b6457600080fd5b919050565b600080600060608486031215610b7e57600080fd5b610b8784610b4d565b95602085013595506040909401359392505050565b600060208284031215610bae57600080fd5b610b3782610b4d565b60008060208385031215610bca57600080fd5b823567ffffffffffffffff80821115610be257600080fd5b818501915085601f830112610bf657600080fd5b813581811115610c0557600080fd5b8660208260051b8501011115610c1a57600080fd5b60209290920196919550909350505050565b6000602080830181845280855180835260408601915060408160051b87010192508387016000805b83811015610cb957888603603f1901855282518051808852835b81811015610c89578281018a01518982018b01528901610c6e565b81811115610c9957848a838b0101525b50601f01601f191696909601870195509386019391860191600101610c54565b509398975050505050505050565b60008060408385031215610cda57600080fd5b610ce383610b4d565b946020939093013593505050565b634e487b7160e01b600052604160045260246000fd5b600080600080600060a08688031215610d1f57600080fd5b610d2886610b4d565b9450602086013593506040860135925060608601359150608086013567ffffffffffffffff80821115610d5a57600080fd5b818801915088601f830112610d6e57600080fd5b813581811115610d8057610d80610cf1565b604051601f8201601f19908116603f01168101908382118183101715610da857610da8610cf1565b816040528281528b6020848701011115610dc157600080fd5b8260208601602083013760006020848301015280955050505050509295509295909350565b634e487b7160e01b600052601160045260246000fd5b600082821015610e0e57610e0e610de6565b500390565b60006001600160601b03808316818516808303821115610e3557610e35610de6565b01949350505050565b60008219821115610e5157610e51610de6565b50019056fea264697066735822122093ee7d75740fa740e03e38621d38ee31bf774c09d9cf4ead0a1de448f928458364736f6c634300080f0033",
    "linkReferences": {}
  },
  "methodIdentifiers": {
    "auctionImplementation()": "6a7f3f6c",
    "createAuction(address,address,uint256,uint256)": "a7bf938d",
    "internalCreateAuction(address,uint256)": "399c15b7",
    "isAuction(address)": "8ebde500",
    "onERC721Received(address,address,uint256,bytes)": "150b7a02"
  },
  "id": 16
}