{
  "abi": [
    {
      "inputs": [],
      "stateMutability": "nonpayable",
      "type": "constructor"
    },
    {
      "inputs": [],
      "name": "InvalidERC721ReceiveData",
      "type": "error"
    },
    {
      "inputs": [],
      "name": "NotCallable",
      "type": "error"
    },
    {
      "anonymous": false,
      "inputs": [
        {
          "indexed": true,
          "internalType": "address",
          "name": "auction",
          "type": "address"
        },
        {
          "indexed": true,
          "internalType": "address",
          "name": "collection",
          "type": "address"
        },
        {
          "indexed": true,
          "internalType": "uint256",
          "name": "tokenId",
          "type": "uint256"
        },
        {
          "indexed": false,
          "internalType": "uint256",
          "name": "revealStartBlock",
          "type": "uint256"
        }
      ],
      "name": "AuctionCreated",
      "type": "event"
    },
    {
      "inputs": [],
      "name": "auctionImplementation",
      "outputs": [
        {
          "internalType": "address",
          "name": "",
          "type": "address"
        }
      ],
      "stateMutability": "view",
      "type": "function"
    },
    {
      "inputs": [
        {
          "internalType": "address",
          "name": "",
          "type": "address"
        },
        {
          "internalType": "uint256",
          "name": "",
          "type": "uint256"
        }
      ],
      "name": "internalCreateAuction",
      "outputs": [],
      "stateMutability": "nonpayable",
      "type": "function"
    },
    {
      "inputs": [
        {
          "internalType": "address",
          "name": "",
          "type": "address"
        }
      ],
      "name": "isAuction",
      "outputs": [
        {
          "internalType": "bool",
          "name": "",
          "type": "bool"
        }
      ],
      "stateMutability": "view",
      "type": "function"
    },
    {
      "inputs": [
        {
          "internalType": "address",
          "name": "",
          "type": "address"
        },
        {
          "internalType": "address",
          "name": "",
          "type": "address"
        },
        {
          "internalType": "uint256",
          "name": "_tokenId",
          "type": "uint256"
        },
        {
          "internalType": "bytes",
          "name": "_data",
          "type": "bytes"
        }
      ],
      "name": "onERC721Received",
      "outputs": [
        {
          "internalType": "bytes4",
          "name": "",
          "type": "bytes4"
        }
      ],
      "stateMutability": "nonpayable",
      "type": "function"
    }
  ],
  "bytecode": {
    "object": "0x60a060405234801561001057600080fd5b5060405161001d9061004b565b604051809103906000f080158015610039573d6000803e3d6000fd5b506001600160a01b0316608052610058565b611117806105e883390190565b60805161056f61007960003960008181609c0152610173015261056f6000f3fe608060405234801561001057600080fd5b506004361061004c5760003560e01c8063150b7a0214610051578063399c15b7146100825780636a7f3f6c146100975780638ebde500146100d6575b600080fd5b61006461005f3660046103db565b610109565b6040516001600160e01b031990911681526020015b60405180910390f35b6100956100903660046104bb565b6102f3565b005b6100be7f000000000000000000000000000000000000000000000000000000000000000081565b6040516001600160a01b039091168152602001610079565b6100f96100e43660046104e7565b60006020819052908152604090205460ff1681565b6040519015158152602001610079565b60208101516000906001600160e01b0319811663399c15b760e01b1461014257604051635f491c4360e01b815260040160405180910390fd5b82516003198101600485019081529360009182916101689181016020019060240161050b565b9150915060006101977f000000000000000000000000000000000000000000000000000000000000000061030c565b33600090815260208990526040908190209051631b7ce04160e01b81526001600160a01b03868116600483015260248201869052604482018390529293509091831690631b7ce04190606401600060405180830381600087803b1580156101fd57600080fd5b505af1158015610211573d6000803e3d6000fd5b5050506001600160a01b03831660008181526020819052604090819020805460ff19166001179055518a92503391907fae654d602733e5af7f01c9bdc66adeb293b7a3c878db8d567c544e89397d2fb59061026f9088815260200190565b60405180910390a46040516323b872dd60e01b81523060048201526001600160a01b03831660248201526044810189905233906323b872dd90606401600060405180830381600087803b1580156102c557600080fd5b505af11580156102d9573d6000803e3d6000fd5b50630a85bd0160e11b9d9c50505050505050505050505050565b60405163902824c160e01b815260040160405180910390fd5b6000604051733d602d80600a3d3981f3363d3d373d3d3d363d7360601b81528260601b60148201526e5af43d82803e903d91602b57fd5bf360881b60288201526037816000f09150506001600160a01b0381166103a85760405162461bcd60e51b8152602060048201526016602482015275115490cc4c4d8dce8818dc99585d194819985a5b195960521b604482015260640160405180910390fd5b919050565b6001600160a01b03811681146103c257600080fd5b50565b634e487b7160e01b600052604160045260246000fd5b600080600080608085870312156103f157600080fd5b84356103fc816103ad565b9350602085013561040c816103ad565b925060408501359150606085013567ffffffffffffffff8082111561043057600080fd5b818701915087601f83011261044457600080fd5b813581811115610456576104566103c5565b604051601f8201601f19908116603f0116810190838211818310171561047e5761047e6103c5565b816040528281528a602084870101111561049757600080fd5b82602086016020830137600060208483010152809550505050505092959194509250565b600080604083850312156104ce57600080fd5b82356104d9816103ad565b946020939093013593505050565b6000602082840312156104f957600080fd5b8135610504816103ad565b9392505050565b6000806040838503121561051e57600080fd5b8251610529816103ad565b602093909301519294929350505056fea264697066735822122036d4747f36ca07c798b7d60c9f2106ed4989fb35ee4ee7f9616e4c08cb00166864736f6c634300080f003360806040526000805462ff00ff19166201000117905534801561002157600080fd5b5061deae600160a01b03196009556110d98061003e6000396000f3fe6080604052600436106101185760003560e01c8063ad72202b116100a0578063ce3a371011610064578063ce3a37101461033d578063d188987f1461037a578063f2fde38b1461039a578063f8ccbf47146103ba578063fa7626d4146103da57600080fd5b8063ad72202b1461028e578063b0bf74c1146102a3578063ba414fa6146102b9578063becddc3d146102de578063cd18a2a61461031d57600080fd5b8063636bf730116100e7578063636bf730146101cb57806368c10505146102035780636aacd6161461022a5780638da5cb5b1461024e578063ac9650d81461026e57600080fd5b806301333f06146101245780631b7ce041146101615780633a7684631461018357806352d11238146101ab57600080fd5b3661011f57005b600080fd5b34801561013057600080fd5b50600b54610144906001600160a01b031681565b6040516001600160a01b0390911681526020015b60405180910390f35b34801561016d57600080fd5b5061018161017c366004610d38565b6103f4565b005b34801561018f57600080fd5b50610144737109709ecfa91a80626ff3989d68f67f5b1dd12d81565b3480156101b757600080fd5b506101816101c6366004610d6b565b6104b5565b3480156101d757600080fd5b50600c546101eb906001600160801b031681565b6040516001600160801b039091168152602001610158565b34801561020f57600080fd5b50600c546101eb90600160801b90046001600160801b031681565b34801561023657600080fd5b50610240600d5481565b604051908152602001610158565b34801561025a57600080fd5b50600954610144906001600160a01b031681565b61028161027c366004610d86565b6104e6565b6040516101589190610e2b565b34801561029a57600080fd5b50610181610565565b3480156102af57600080fd5b50610240600a5481565b3480156102c557600080fd5b506102ce61061e565b6040519015158152602001610158565b3480156102ea57600080fd5b5060095461030590600160a01b90046001600160601b031681565b6040516001600160601b039091168152602001610158565b34801561032957600080fd5b50610181610338366004610ea5565b610749565b34801561034957600080fd5b5061035d610358366004610d38565b610911565b604080519283526001600160a01b03909116602083015201610158565b34801561038657600080fd5b50610144610395366004610ee5565b610961565b3480156103a657600080fd5b506101816103b5366004610d6b565b610bea565b3480156103c657600080fd5b506000546102ce9062010000900460ff1681565b3480156103e657600080fd5b506000546102ce9060ff1681565b6009546001600160a01b03161561041d5760405162dc149f60e41b815260040160405180910390fd5b6001600160a01b0383166104445760405163267eaa8160e21b815260040160405180910390fd5b438211610464576040516317a53f2360e11b815260040160405180910390fd5b6001600160a01b038316600160a01b6001600160601b0384160281176009556040516000907f8be0079c531659141344cd1fd0a4f28419497f9722a3daafe3b4186f6b6457e0908290a3600d555050565b6001600160a01b0381166000908152600860205260408120805491905580156104e2576104e28282610ca0565b5050565b6060811561055f5750604051818152602001600582901b808483378101805b825185018035602082018337600080823584305af4610528573d6000803e3d6000fd5b508083526020830192503d81523d6000602083013e3d01603f0167ffffffffffffffe0168183106105055760405192508060405250505b92915050565b600a541561058657604051635da6a4a160e11b815260040160405180910390fd5b600954600160a01b90046001600160601b03164381106105b957604051638bbce02d60e01b815260040160405180910390fd5b6105ce6105c861010043610fda565b82610cfa565b40600a55600980546001600160a01b0316600160a01b436001600160601b0316021790556040517f3bcc93d35219aa0512d7c0d1ca10b0231f473e3d5f9396877d1b7215ee0ab3d590600090a150565b60008054610100900460ff161561063e5750600054610100900460ff1690565b6000737109709ecfa91a80626ff3989d68f67f5b1dd12d3b156107445760408051737109709ecfa91a80626ff3989d68f67f5b1dd12d602082018190526519985a5b195960d21b828401528251808303840181526060830190935260009290916106cc917f667f9d70ca411d70ead50d8d5c22070dafc36ad75f3dcf5e7237b22ade9aecc491608001610ff1565b60408051601f19818403018152908290526106e691611022565b6000604051808303816000865af19150503d8060008114610723576040519150601f19603f3d011682016040523d82523d6000602084013e610728565b606091505b5091505080806020019051810190610740919061103e565b9150505b919050565b600954439061076a90600160a01b90046001600160601b0316611c20611060565b6001600160601b0316106107915760405163b317752160e01b815260040160405180910390fd5b6000828152602082905260409020600d5481146107c157604051630309809960e31b815260040160405180910390fd5b600b54604051632142170760e11b81523060048201526001600160a01b03918216602482015260448101849052908416906342842e0e90606401600060405180830381600087803b15801561081557600080fd5b505af1158015610829573d6000803e3d6000fd5b50506000600d819055600b54600c546001600160a01b0390911693506001600160801b03600160801b82048116935061086491849116610fda565b6001600160a01b03841660009081526008602052604081208054929350839290919061089190849061108b565b90915550506009546001600160a01b0316600090815260086020526040812080548492906108c090849061108b565b909155505060408051838152602081018390526001600160a01b038516917f32c1ffa2d64a48a72c24ae3e096197a2f77804340592434296903bbf76981632910160405180910390a2505050505050565b673d3d3d3d47335af16000526008601820604080519485526020850193909352918301526060822030601484015260ff83526034830181905260548301919091526055601f909201919091209091565b6009546000908190439061098790600160a01b90046001600160601b0316611c20611060565b6001600160601b031610156109af576040516328c79d5560e11b815260040160405180910390fd5b600a54806109d057604051630a542d4360e01b815260040160405180910390fd5b6000806109de8a8a8a610911565b90925090506000479050673d3d3d3d47335af160005282600860186000f59550610a088147610fda565b9450505050506000610a1a8786610d12565b90506000610a288284610fda565b600c54600b549192506001600160801b0380821692600160801b90920416906001600160a01b031682851115610b07576001600160a01b03811615801590610a7957506000836001600160801b0316115b15610ab5576001600160a01b038116600090815260086020526040812080546001600160801b0386169290610aaf90849061108b565b90915550505b5050600b80546001600160a01b038c166001600160a01b03199091161790556001600160801b03838116908216600160801b026fffffffffffffffffffffffffffffffff191617600c5582908a610b4c565b600c54600160801b90046001600160801b0316851115610b3f57600c80546001600160801b03808816600160801b0291161790558491505b610b49858561108b565b93505b8315610b80576001600160a01b038c1660009081526008602052604081208054869290610b7a90849061108b565b90915550505b604080516001600160801b038086168252841660208201529081018690526001600160a01b03808e1691908316907f7f749dfc3f8dd6da5dd55f4ded584b12b39d0dc9f9333f3a467f75d44a4e96cb9060600160405180910390a350505050505095945050505050565b6001600160a01b038116610c1157604051634e08abab60e01b815260040160405180910390fd5b6009546001600160a01b0316338114610c3d576040516330cd747160e01b815260040160405180910390fd5b816001600160a01b0316816001600160a01b03167f8be0079c531659141344cd1fd0a4f28419497f9722a3daafe3b4186f6b6457e060405160405180910390a350600980546001600160a01b0319166001600160a01b0392909216919091179055565b600080600080600085875af1905080610cf55760405162461bcd60e51b815260206004820152601360248201527211551217d514905394d1915497d19052531151606a1b604482015260640160405180910390fd5b505050565b6000818311610d095781610d0b565b825b9392505050565b6000818310610d095781610d0b565b80356001600160a01b038116811461074457600080fd5b600080600060608486031215610d4d57600080fd5b610d5684610d21565b95602085013595506040909401359392505050565b600060208284031215610d7d57600080fd5b610d0b82610d21565b60008060208385031215610d9957600080fd5b823567ffffffffffffffff80821115610db157600080fd5b818501915085601f830112610dc557600080fd5b813581811115610dd457600080fd5b8660208260051b8501011115610de957600080fd5b60209290920196919550909350505050565b60005b83811015610e16578181015183820152602001610dfe565b83811115610e25576000848401525b50505050565b6000602080830181845280855180835260408601915060408160051b870101925083870160005b82811015610e9857878503603f1901845281518051808752610e79818989018a8501610dfb565b601f01601f191695909501860194509285019290850190600101610e52565b5092979650505050505050565b60008060408385031215610eb857600080fd5b610ec183610d21565b946020939093013593505050565b634e487b7160e01b600052604160045260246000fd5b600080600080600060a08688031215610efd57600080fd5b610f0686610d21565b9450602086013593506040860135925060608601359150608086013567ffffffffffffffff80821115610f3857600080fd5b818801915088601f830112610f4c57600080fd5b813581811115610f5e57610f5e610ecf565b604051601f8201601f19908116603f01168101908382118183101715610f8657610f86610ecf565b816040528281528b6020848701011115610f9f57600080fd5b8260208601602083013760006020848301015280955050505050509295509295909350565b634e487b7160e01b600052601160045260246000fd5b600082821015610fec57610fec610fc4565b500390565b6001600160e01b0319831681528151600090611014816004850160208701610dfb565b919091016004019392505050565b60008251611034818460208701610dfb565b9190910192915050565b60006020828403121561105057600080fd5b81518015158114610d0b57600080fd5b60006001600160601b0380831681851680830382111561108257611082610fc4565b01949350505050565b6000821982111561109e5761109e610fc4565b50019056fea26469706673582212201fdc7d73a3b5a3fed9d005c0d2f580bba9df79f65999cf7458bc3ea20a22ce5164736f6c634300080f0033",
    "linkReferences": {}
  },
  "methodIdentifiers": {
    "auctionImplementation()": "6a7f3f6c",
    "internalCreateAuction(address,uint256)": "399c15b7",
    "isAuction(address)": "8ebde500",
    "onERC721Received(address,address,uint256,bytes)": "150b7a02"
  },
  "id": 16
}