{
  "abi": [
    {
      "inputs": [],
      "stateMutability": "nonpayable",
      "type": "constructor"
    },
    {
      "inputs": [],
      "name": "InvalidERC721ReceiveData",
      "type": "error"
    },
    {
      "inputs": [],
      "name": "NotCallable",
      "type": "error"
    },
    {
      "anonymous": false,
      "inputs": [
        {
          "indexed": true,
          "internalType": "address",
          "name": "auction",
          "type": "address"
        },
        {
          "indexed": true,
          "internalType": "address",
          "name": "collection",
          "type": "address"
        },
        {
          "indexed": true,
          "internalType": "uint256",
          "name": "tokenId",
          "type": "uint256"
        },
        {
          "indexed": false,
          "internalType": "uint256",
          "name": "revealStartBlock",
          "type": "uint256"
        }
      ],
      "name": "AuctionCreated",
      "type": "event"
    },
    {
      "inputs": [],
      "name": "auctionImplementation",
      "outputs": [
        {
          "internalType": "address",
          "name": "",
          "type": "address"
        }
      ],
      "stateMutability": "view",
      "type": "function"
    },
    {
      "inputs": [
        {
          "internalType": "address",
          "name": "",
          "type": "address"
        },
        {
          "internalType": "uint256",
          "name": "",
          "type": "uint256"
        }
      ],
      "name": "innerCreateAuction",
      "outputs": [],
      "stateMutability": "nonpayable",
      "type": "function"
    },
    {
      "inputs": [
        {
          "internalType": "address",
          "name": "",
          "type": "address"
        }
      ],
      "name": "isAuction",
      "outputs": [
        {
          "internalType": "bool",
          "name": "",
          "type": "bool"
        }
      ],
      "stateMutability": "view",
      "type": "function"
    },
    {
      "inputs": [
        {
          "internalType": "address",
          "name": "",
          "type": "address"
        },
        {
          "internalType": "address",
          "name": "",
          "type": "address"
        },
        {
          "internalType": "uint256",
          "name": "_tokenId",
          "type": "uint256"
        },
        {
          "internalType": "bytes",
          "name": "_data",
          "type": "bytes"
        }
      ],
      "name": "onERC721Received",
      "outputs": [
        {
          "internalType": "bytes4",
          "name": "",
          "type": "bytes4"
        }
      ],
      "stateMutability": "nonpayable",
      "type": "function"
    }
  ],
  "bytecode": {
    "object": "0x60a060405234801561001057600080fd5b5060405161001d9061004b565b604051809103906000f080158015610039573d6000803e3d6000fd5b506001600160a01b0316608052610058565b610e2c806105e883390190565b60805161056f6100796000396000818160870152610173015261056f6000f3fe608060405234801561001057600080fd5b506004361061004c5760003560e01c8063150b7a02146100515780636a7f3f6c146100825780638ebde500146100c1578063f5d140bd146100f4575b600080fd5b61006461005f3660046103db565b610109565b6040516001600160e01b031990911681526020015b60405180910390f35b6100a97f000000000000000000000000000000000000000000000000000000000000000081565b6040516001600160a01b039091168152602001610079565b6100e46100cf3660046104bb565b60006020819052908152604090205460ff1681565b6040519015158152602001610079565b6101076101023660046104df565b6102f3565b005b60208101516000906001600160e01b0319811663f5d140bd60e01b1461014257604051635f491c4360e01b815260040160405180910390fd5b82516003198101600485019081529360009182916101689181016020019060240161050b565b9150915060006101977f000000000000000000000000000000000000000000000000000000000000000061030c565b33600090815260208990526040908190209051631b7ce04160e01b81526001600160a01b03868116600483015260248201869052604482018390529293509091831690631b7ce04190606401600060405180830381600087803b1580156101fd57600080fd5b505af1158015610211573d6000803e3d6000fd5b5050506001600160a01b03831660008181526020819052604090819020805460ff19166001179055518a92503391907fae654d602733e5af7f01c9bdc66adeb293b7a3c878db8d567c544e89397d2fb59061026f9088815260200190565b60405180910390a46040516323b872dd60e01b81523060048201526001600160a01b03831660248201526044810189905233906323b872dd90606401600060405180830381600087803b1580156102c557600080fd5b505af11580156102d9573d6000803e3d6000fd5b50630a85bd0160e11b9d9c50505050505050505050505050565b60405163902824c160e01b815260040160405180910390fd5b6000604051733d602d80600a3d3981f3363d3d373d3d3d363d7360601b81528260601b60148201526e5af43d82803e903d91602b57fd5bf360881b60288201526037816000f09150506001600160a01b0381166103a85760405162461bcd60e51b8152602060048201526016602482015275115490cc4c4d8dce8818dc99585d194819985a5b195960521b604482015260640160405180910390fd5b919050565b6001600160a01b03811681146103c257600080fd5b50565b634e487b7160e01b600052604160045260246000fd5b600080600080608085870312156103f157600080fd5b84356103fc816103ad565b9350602085013561040c816103ad565b925060408501359150606085013567ffffffffffffffff8082111561043057600080fd5b818701915087601f83011261044457600080fd5b813581811115610456576104566103c5565b604051601f8201601f19908116603f0116810190838211818310171561047e5761047e6103c5565b816040528281528a602084870101111561049757600080fd5b82602086016020830137600060208483010152809550505050505092959194509250565b6000602082840312156104cd57600080fd5b81356104d8816103ad565b9392505050565b600080604083850312156104f257600080fd5b82356104fd816103ad565b946020939093013593505050565b6000806040838503121561051e57600080fd5b8251610529816103ad565b602093909301519294929350505056fea2646970667358221220a58a6c213f355f3b68c9790e75db0d62a94ab20043c505af51ddfd0da680c87664736f6c634300080f0033608060405234801561001057600080fd5b5061deae600160a01b0319600155610dff8061002d6000396000f3fe6080604052600436106100f75760003560e01c8063ac9650d81161008a578063cd18a2a611610059578063cd18a2a6146102cf578063ce3a3710146102ef578063e736ca591461032c578063f2fde38b1461035957600080fd5b8063ac9650d814610245578063ad72202b14610265578063b0bf74c11461027a578063becddc3d1461029057600080fd5b8063641c373b116100c6578063641c373b146101c857806368c10505146101e85780636aacd6161461020f5780638da5cb5b1461022557600080fd5b806301333f06146101035780631b7ce0411461014057806352d1123814610162578063636bf7301461019057600080fd5b366100fe57005b600080fd5b34801561010f57600080fd5b50600354610123906001600160a01b031681565b6040516001600160a01b0390911681526020015b60405180910390f35b34801561014c57600080fd5b5061016061015b366004610b98565b610379565b005b34801561016e57600080fd5b5061018261017d366004610bcb565b61043a565b604051908152602001610137565b34801561019c57600080fd5b506004546101b0906001600160801b031681565b6040516001600160801b039091168152602001610137565b3480156101d457600080fd5b506101236101e3366004610be6565b610481565b3480156101f457600080fd5b506004546101b090600160801b90046001600160801b031681565b34801561021b57600080fd5b5061018260055481565b34801561023157600080fd5b50600154610123906001600160a01b031681565b610258610253366004610c1f565b610694565b6040516101379190610c94565b34801561027157600080fd5b50610160610713565b34801561028657600080fd5b5061018260025481565b34801561029c57600080fd5b506001546102b790600160a01b90046001600160601b031681565b6040516001600160601b039091168152602001610137565b3480156102db57600080fd5b506101606102ea366004610d2f565b6107cc565b3480156102fb57600080fd5b5061030f61030a366004610b98565b610955565b604080519283526001600160a01b03909116602083015201610137565b34801561033857600080fd5b50610182610347366004610bcb565b60006020819052908152604090205481565b34801561036557600080fd5b50610160610374366004610bcb565b6109a5565b6001546001600160a01b0316156103a25760405162dc149f60e41b815260040160405180910390fd5b6001600160a01b0383166103c95760405163267eaa8160e21b815260040160405180910390fd5b4382116103e9576040516317a53f2360e11b815260040160405180910390fd5b6001600160a01b038316600160a01b6001600160601b0384160281176001556040516000907f8be0079c531659141344cd1fd0a4f28419497f9722a3daafe3b4186f6b6457e0908290a36005555050565b6001600160a01b038116600090815260208190526040902054801561047c576001600160a01b03821660009081526020819052604081205561047c8282610a5b565b919050565b600154600090819043906104a790600160a01b90046001600160601b0316611c20610d6f565b6001600160601b031610156104cf576040516328c79d5560e11b815260040160405180910390fd5b600254806104f057604051630a542d4360e01b815260040160405180910390fd5b6000806104fe898989610955565b915091506000479050673d3d3d3d47335af160005282600860186000f595506105278147610d9a565b94505050505060006105398685610ab5565b905060006105478284610d9a565b6004546003549192506001600160801b0380821692600160801b90920416906001600160a01b0316828511156105dc5761058a81846001600160801b0316610acd565b5050600380546001600160a01b038b166001600160a01b03199091161790556001600160801b03838116908216600160801b026fffffffffffffffffffffffffffffffff191617600455829089610621565b600454600160801b90046001600160801b031685111561061457600480546001600160801b03808816600160801b0291161790558491505b61061e8585610db1565b93505b61062b8b85610acd565b604080516001600160801b038086168252841660208201529081018690526001600160a01b03808d1691908316907f7f749dfc3f8dd6da5dd55f4ded584b12b39d0dc9f9333f3a467f75d44a4e96cb9060600160405180910390a3505050505050949350505050565b6060811561070d5750604051818152602001600582901b808483378101805b825185018035602082018337600080823584305af46106d6573d6000803e3d6000fd5b508083526020830192503d81523d6000602083013e3d01603f0167ffffffffffffffe0168183106106b35760405192508060405250505b92915050565b6002541561073457604051635da6a4a160e11b815260040160405180910390fd5b600154600160a01b90046001600160601b031643811061076757604051638bbce02d60e01b815260040160405180910390fd5b61077c61077661010043610d9a565b82610b72565b40600255600180546001600160a01b0316600160a01b436001600160601b0316021790556040517f3bcc93d35219aa0512d7c0d1ca10b0231f473e3d5f9396877d1b7215ee0ab3d590600090a150565b60015443906107ed90600160a01b90046001600160601b0316611c20610d6f565b6001600160601b0316106108145760405163b317752160e01b815260040160405180910390fd5b6000828152602082905260409020600554811461084457604051630309809960e31b815260040160405180910390fd5b600354604051632142170760e11b81523060048201526001600160a01b03918216602482015260448101849052908416906342842e0e90606401600060405180830381600087803b15801561089857600080fd5b505af11580156108ac573d6000803e3d6000fd5b5050600060058190556003546004546001600160a01b0390911693506001600160801b03600160801b8204811693506108e791849116610d9a565b90506108f38382610acd565b600154610909906001600160a01b031683610acd565b60408051838152602081018390526001600160a01b038516917f32c1ffa2d64a48a72c24ae3e096197a2f77804340592434296903bbf76981632910160405180910390a2505050505050565b673d3d3d3d47335af16000526008601820604080519485526020850193909352918301526060822030601484015260ff83526034830181905260548301919091526055601f909201919091209091565b6001600160a01b0381166109cc57604051634e08abab60e01b815260040160405180910390fd5b6001546001600160a01b03163381146109f8576040516330cd747160e01b815260040160405180910390fd5b816001600160a01b0316816001600160a01b03167f8be0079c531659141344cd1fd0a4f28419497f9722a3daafe3b4186f6b6457e060405160405180910390a350600180546001600160a01b0319166001600160a01b0392909216919091179055565b600080600080600085875af1905080610ab05760405162461bcd60e51b815260206004820152601360248201527211551217d514905394d1915497d19052531151606a1b604482015260640160405180910390fd5b505050565b6000818310610ac45781610ac6565b825b9392505050565b8015610b6e576001600160a01b038216610af0576001546001600160a01b031691505b6001600160a01b038216600090815260208190526040812054610b14908390610db1565b6001600160a01b03841660008181526020818152604091829020849055815186815290810184905292935090917fb00a932bf706109fd167206f270b85d06508f652cd920fc2ace38b3dd5df955f910160405180910390a2505b5050565b6000818311610ac45781610ac6565b80356001600160a01b038116811461047c57600080fd5b600080600060608486031215610bad57600080fd5b610bb684610b81565b95602085013595506040909401359392505050565b600060208284031215610bdd57600080fd5b610ac682610b81565b60008060008060808587031215610bfc57600080fd5b610c0585610b81565b966020860135965060408601359560600135945092505050565b60008060208385031215610c3257600080fd5b823567ffffffffffffffff80821115610c4a57600080fd5b818501915085601f830112610c5e57600080fd5b813581811115610c6d57600080fd5b8660208260051b8501011115610c8257600080fd5b60209290920196919550909350505050565b6000602080830181845280855180835260408601915060408160051b87010192508387016000805b83811015610d2157888603603f1901855282518051808852835b81811015610cf1578281018a01518982018b01528901610cd6565b81811115610d0157848a838b0101525b50601f01601f191696909601870195509386019391860191600101610cbc565b509398975050505050505050565b60008060408385031215610d4257600080fd5b610d4b83610b81565b946020939093013593505050565b634e487b7160e01b600052601160045260246000fd5b60006001600160601b03808316818516808303821115610d9157610d91610d59565b01949350505050565b600082821015610dac57610dac610d59565b500390565b60008219821115610dc457610dc4610d59565b50019056fea26469706673582212209dc42954a9b0eb0968b37315e170332459b78025860825882200fa137ea515e764736f6c634300080f0033",
    "linkReferences": {}
  },
  "methodIdentifiers": {
    "auctionImplementation()": "6a7f3f6c",
    "innerCreateAuction(address,uint256)": "f5d140bd",
    "isAuction(address)": "8ebde500",
    "onERC721Received(address,address,uint256,bytes)": "150b7a02"
  },
  "id": 22
}