{
  "abi": [
    {
      "inputs": [],
      "stateMutability": "nonpayable",
      "type": "constructor"
    },
    {
      "inputs": [],
      "name": "InvalidERC721ReceiveData",
      "type": "error"
    },
    {
      "inputs": [],
      "name": "NotCallable",
      "type": "error"
    },
    {
      "anonymous": false,
      "inputs": [
        {
          "indexed": true,
          "internalType": "address",
          "name": "auction",
          "type": "address"
        },
        {
          "indexed": true,
          "internalType": "address",
          "name": "collection",
          "type": "address"
        },
        {
          "indexed": true,
          "internalType": "uint256",
          "name": "tokenId",
          "type": "uint256"
        },
        {
          "indexed": false,
          "internalType": "uint256",
          "name": "revealStartBlock",
          "type": "uint256"
        }
      ],
      "name": "AuctionCreated",
      "type": "event"
    },
    {
      "inputs": [],
      "name": "auctionImplementation",
      "outputs": [
        {
          "internalType": "address",
          "name": "",
          "type": "address"
        }
      ],
      "stateMutability": "view",
      "type": "function"
    },
    {
      "inputs": [
        {
          "internalType": "address",
          "name": "",
          "type": "address"
        },
        {
          "internalType": "uint256",
          "name": "",
          "type": "uint256"
        }
      ],
      "name": "innerCreateAuction",
      "outputs": [],
      "stateMutability": "nonpayable",
      "type": "function"
    },
    {
      "inputs": [
        {
          "internalType": "address",
          "name": "",
          "type": "address"
        }
      ],
      "name": "isAuction",
      "outputs": [
        {
          "internalType": "bool",
          "name": "",
          "type": "bool"
        }
      ],
      "stateMutability": "view",
      "type": "function"
    },
    {
      "inputs": [
        {
          "internalType": "address",
          "name": "",
          "type": "address"
        },
        {
          "internalType": "address",
          "name": "",
          "type": "address"
        },
        {
          "internalType": "uint256",
          "name": "_tokenId",
          "type": "uint256"
        },
        {
          "internalType": "bytes",
          "name": "_data",
          "type": "bytes"
        }
      ],
      "name": "onERC721Received",
      "outputs": [
        {
          "internalType": "bytes4",
          "name": "",
          "type": "bytes4"
        }
      ],
      "stateMutability": "nonpayable",
      "type": "function"
    }
  ],
  "bytecode": {
    "object": "0x60a060405234801561001057600080fd5b5060405161001d9061004b565b604051809103906000f080158015610039573d6000803e3d6000fd5b506001600160a01b0316608052610058565b610eea806105e883390190565b60805161056f6100796000396000818160870152610173015261056f6000f3fe608060405234801561001057600080fd5b506004361061004c5760003560e01c8063150b7a02146100515780636a7f3f6c146100825780638ebde500146100c1578063f5d140bd146100f4575b600080fd5b61006461005f3660046103db565b610109565b6040516001600160e01b031990911681526020015b60405180910390f35b6100a97f000000000000000000000000000000000000000000000000000000000000000081565b6040516001600160a01b039091168152602001610079565b6100e46100cf3660046104bb565b60006020819052908152604090205460ff1681565b6040519015158152602001610079565b6101076101023660046104df565b6102f3565b005b60208101516000906001600160e01b0319811663f5d140bd60e01b1461014257604051635f491c4360e01b815260040160405180910390fd5b82516003198101600485019081529360009182916101689181016020019060240161050b565b9150915060006101977f000000000000000000000000000000000000000000000000000000000000000061030c565b33600090815260208990526040908190209051631b7ce04160e01b81526001600160a01b03868116600483015260248201869052604482018390529293509091831690631b7ce04190606401600060405180830381600087803b1580156101fd57600080fd5b505af1158015610211573d6000803e3d6000fd5b5050506001600160a01b03831660008181526020819052604090819020805460ff19166001179055518a92503391907fae654d602733e5af7f01c9bdc66adeb293b7a3c878db8d567c544e89397d2fb59061026f9088815260200190565b60405180910390a46040516323b872dd60e01b81523060048201526001600160a01b03831660248201526044810189905233906323b872dd90606401600060405180830381600087803b1580156102c557600080fd5b505af11580156102d9573d6000803e3d6000fd5b50630a85bd0160e11b9d9c50505050505050505050505050565b60405163902824c160e01b815260040160405180910390fd5b6000604051733d602d80600a3d3981f3363d3d373d3d3d363d7360601b81528260601b60148201526e5af43d82803e903d91602b57fd5bf360881b60288201526037816000f09150506001600160a01b0381166103a85760405162461bcd60e51b8152602060048201526016602482015275115490cc4c4d8dce8818dc99585d194819985a5b195960521b604482015260640160405180910390fd5b919050565b6001600160a01b03811681146103c257600080fd5b50565b634e487b7160e01b600052604160045260246000fd5b600080600080608085870312156103f157600080fd5b84356103fc816103ad565b9350602085013561040c816103ad565b925060408501359150606085013567ffffffffffffffff8082111561043057600080fd5b818701915087601f83011261044457600080fd5b813581811115610456576104566103c5565b604051601f8201601f19908116603f0116810190838211818310171561047e5761047e6103c5565b816040528281528a602084870101111561049757600080fd5b82602086016020830137600060208483010152809550505050505092959194509250565b6000602082840312156104cd57600080fd5b81356104d8816103ad565b9392505050565b600080604083850312156104f257600080fd5b82356104fd816103ad565b946020939093013593505050565b6000806040838503121561051e57600080fd5b8251610529816103ad565b602093909301519294929350505056fea264697066735822122059cc40d2353739cc50073a1426e45e16499b13bb8cbc1e5a6edacebcd9fcce0364736f6c634300080f0033608060405234801561001057600080fd5b5061deae600160a01b0319600155610ebd8061002d6000396000f3fe6080604052600436106100f75760003560e01c8063ad72202b1161008a578063ce3a371011610059578063ce3a3710146102cf578063d188987f1461030c578063e736ca591461032c578063f2fde38b1461035957600080fd5b8063ad72202b14610245578063b0bf74c11461025a578063becddc3d14610270578063cd18a2a6146102af57600080fd5b806368c10505116100c657806368c10505146101c85780636aacd616146101ef5780638da5cb5b14610205578063ac9650d81461022557600080fd5b806301333f06146101035780631b7ce0411461014057806352d1123814610162578063636bf7301461019057600080fd5b366100fe57005b600080fd5b34801561010f57600080fd5b50600354610123906001600160a01b031681565b6040516001600160a01b0390911681526020015b60405180910390f35b34801561014c57600080fd5b5061016061015b366004610b9a565b610379565b005b34801561016e57600080fd5b5061018261017d366004610bcd565b61043a565b604051908152602001610137565b34801561019c57600080fd5b506004546101b0906001600160801b031681565b6040516001600160801b039091168152602001610137565b3480156101d457600080fd5b506004546101b090600160801b90046001600160801b031681565b3480156101fb57600080fd5b5061018260055481565b34801561021157600080fd5b50600154610123906001600160a01b031681565b610238610233366004610be8565b610481565b6040516101379190610c5d565b34801561025157600080fd5b50610160610500565b34801561026657600080fd5b5061018260025481565b34801561027c57600080fd5b5060015461029790600160a01b90046001600160601b031681565b6040516001600160601b039091168152602001610137565b3480156102bb57600080fd5b506101606102ca366004610cf8565b6105b9565b3480156102db57600080fd5b506102ef6102ea366004610b9a565b610742565b604080519283526001600160a01b03909116602083015201610137565b34801561031857600080fd5b50610123610327366004610d38565b610792565b34801561033857600080fd5b50610182610347366004610bcd565b60006020819052908152604090205481565b34801561036557600080fd5b50610160610374366004610bcd565b6109a7565b6001546001600160a01b0316156103a25760405162dc149f60e41b815260040160405180910390fd5b6001600160a01b0383166103c95760405163267eaa8160e21b815260040160405180910390fd5b4382116103e9576040516317a53f2360e11b815260040160405180910390fd5b6001600160a01b038316600160a01b6001600160601b0384160281176001556040516000907f8be0079c531659141344cd1fd0a4f28419497f9722a3daafe3b4186f6b6457e0908290a36005555050565b6001600160a01b038116600090815260208190526040902054801561047c576001600160a01b03821660009081526020819052604081205561047c8282610a5d565b919050565b606081156104fa5750604051818152602001600582901b808483378101805b825185018035602082018337600080823584305af46104c3573d6000803e3d6000fd5b508083526020830192503d81523d6000602083013e3d01603f0167ffffffffffffffe0168183106104a05760405192508060405250505b92915050565b6002541561052157604051635da6a4a160e11b815260040160405180910390fd5b600154600160a01b90046001600160601b031643811061055457604051638bbce02d60e01b815260040160405180910390fd5b61056961056361010043610e2d565b82610ab7565b40600255600180546001600160a01b0316600160a01b436001600160601b0316021790556040517f3bcc93d35219aa0512d7c0d1ca10b0231f473e3d5f9396877d1b7215ee0ab3d590600090a150565b60015443906105da90600160a01b90046001600160601b0316611c20610e44565b6001600160601b0316106106015760405163b317752160e01b815260040160405180910390fd5b6000828152602082905260409020600554811461063157604051630309809960e31b815260040160405180910390fd5b600354604051632142170760e11b81523060048201526001600160a01b03918216602482015260448101849052908416906342842e0e90606401600060405180830381600087803b15801561068557600080fd5b505af1158015610699573d6000803e3d6000fd5b5050600060058190556003546004546001600160a01b0390911693506001600160801b03600160801b8204811693506106d491849116610e2d565b90506106e08382610acf565b6001546106f6906001600160a01b031683610acf565b60408051838152602081018390526001600160a01b038516917f32c1ffa2d64a48a72c24ae3e096197a2f77804340592434296903bbf76981632910160405180910390a2505050505050565b673d3d3d3d47335af16000526008601820604080519485526020850193909352918301526060822030601484015260ff83526034830181905260548301919091526055601f909201919091209091565b600154600090819043906107b890600160a01b90046001600160601b0316611c20610e44565b6001600160601b031610156107e0576040516328c79d5560e11b815260040160405180910390fd5b6002548061080157604051630a542d4360e01b815260040160405180910390fd5b60008061080f8a8a8a610742565b90925090506000479050673d3d3d3d47335af160005282600860186000f595506108398147610e2d565b945050505050600061084b8786610b74565b905060006108598284610e2d565b6004546003549192506001600160801b0380821692600160801b90920416906001600160a01b0316828511156108ee5761089c81846001600160801b0316610acf565b5050600380546001600160a01b038c166001600160a01b03199091161790556001600160801b03838116908216600160801b026fffffffffffffffffffffffffffffffff19161760045582908a610933565b600454600160801b90046001600160801b031685111561092657600480546001600160801b03808816600160801b0291161790558491505b6109308585610e6f565b93505b61093d8c85610acf565b604080516001600160801b038086168252841660208201529081018690526001600160a01b03808e1691908316907f7f749dfc3f8dd6da5dd55f4ded584b12b39d0dc9f9333f3a467f75d44a4e96cb9060600160405180910390a350505050505095945050505050565b6001600160a01b0381166109ce57604051634e08abab60e01b815260040160405180910390fd5b6001546001600160a01b03163381146109fa576040516330cd747160e01b815260040160405180910390fd5b816001600160a01b0316816001600160a01b03167f8be0079c531659141344cd1fd0a4f28419497f9722a3daafe3b4186f6b6457e060405160405180910390a350600180546001600160a01b0319166001600160a01b0392909216919091179055565b600080600080600085875af1905080610ab25760405162461bcd60e51b815260206004820152601360248201527211551217d514905394d1915497d19052531151606a1b604482015260640160405180910390fd5b505050565b6000818311610ac65781610ac8565b825b9392505050565b8015610b70576001600160a01b038216610af2576001546001600160a01b031691505b6001600160a01b038216600090815260208190526040812054610b16908390610e6f565b6001600160a01b03841660008181526020818152604091829020849055815186815290810184905292935090917fb00a932bf706109fd167206f270b85d06508f652cd920fc2ace38b3dd5df955f910160405180910390a2505b5050565b6000818310610ac65781610ac8565b80356001600160a01b038116811461047c57600080fd5b600080600060608486031215610baf57600080fd5b610bb884610b83565b95602085013595506040909401359392505050565b600060208284031215610bdf57600080fd5b610ac882610b83565b60008060208385031215610bfb57600080fd5b823567ffffffffffffffff80821115610c1357600080fd5b818501915085601f830112610c2757600080fd5b813581811115610c3657600080fd5b8660208260051b8501011115610c4b57600080fd5b60209290920196919550909350505050565b6000602080830181845280855180835260408601915060408160051b87010192508387016000805b83811015610cea57888603603f1901855282518051808852835b81811015610cba578281018a01518982018b01528901610c9f565b81811115610cca57848a838b0101525b50601f01601f191696909601870195509386019391860191600101610c85565b509398975050505050505050565b60008060408385031215610d0b57600080fd5b610d1483610b83565b946020939093013593505050565b634e487b7160e01b600052604160045260246000fd5b600080600080600060a08688031215610d5057600080fd5b610d5986610b83565b9450602086013593506040860135925060608601359150608086013567ffffffffffffffff80821115610d8b57600080fd5b818801915088601f830112610d9f57600080fd5b813581811115610db157610db1610d22565b604051601f8201601f19908116603f01168101908382118183101715610dd957610dd9610d22565b816040528281528b6020848701011115610df257600080fd5b8260208601602083013760006020848301015280955050505050509295509295909350565b634e487b7160e01b600052601160045260246000fd5b600082821015610e3f57610e3f610e17565b500390565b60006001600160601b03808316818516808303821115610e6657610e66610e17565b01949350505050565b60008219821115610e8257610e82610e17565b50019056fea26469706673582212207e2cfbcaca1e34b3fccd644b172bd7df00196bc91ece57761fae2354d059923764736f6c634300080f0033",
    "linkReferences": {}
  },
  "methodIdentifiers": {
    "auctionImplementation()": "6a7f3f6c",
    "innerCreateAuction(address,uint256)": "f5d140bd",
    "isAuction(address)": "8ebde500",
    "onERC721Received(address,address,uint256,bytes)": "150b7a02"
  },
  "id": 16
}