{
  "abi": [
    {
      "inputs": [
        {
          "internalType": "address",
          "name": "_auctionImplementation",
          "type": "address"
        }
      ],
      "stateMutability": "nonpayable",
      "type": "constructor"
    },
    {
      "inputs": [],
      "name": "InvalidERC721ReceiveData",
      "type": "error"
    },
    {
      "inputs": [],
      "name": "NotCallable",
      "type": "error"
    },
    {
      "anonymous": false,
      "inputs": [
        {
          "indexed": true,
          "internalType": "address",
          "name": "auction",
          "type": "address"
        },
        {
          "indexed": true,
          "internalType": "address",
          "name": "collection",
          "type": "address"
        },
        {
          "indexed": true,
          "internalType": "uint256",
          "name": "tokenId",
          "type": "uint256"
        },
        {
          "indexed": false,
          "internalType": "uint256",
          "name": "revealStartBlock",
          "type": "uint256"
        }
      ],
      "name": "AuctionCreated",
      "type": "event"
    },
    {
      "inputs": [],
      "name": "auctionImplementation",
      "outputs": [
        {
          "internalType": "address",
          "name": "",
          "type": "address"
        }
      ],
      "stateMutability": "view",
      "type": "function"
    },
    {
      "inputs": [
        {
          "internalType": "address",
          "name": "",
          "type": "address"
        },
        {
          "internalType": "uint256",
          "name": "",
          "type": "uint256"
        }
      ],
      "name": "innerCreateAuction",
      "outputs": [],
      "stateMutability": "nonpayable",
      "type": "function"
    },
    {
      "inputs": [
        {
          "internalType": "address",
          "name": "",
          "type": "address"
        }
      ],
      "name": "isAuction",
      "outputs": [
        {
          "internalType": "bool",
          "name": "",
          "type": "bool"
        }
      ],
      "stateMutability": "view",
      "type": "function"
    },
    {
      "inputs": [
        {
          "internalType": "address",
          "name": "",
          "type": "address"
        },
        {
          "internalType": "address",
          "name": "",
          "type": "address"
        },
        {
          "internalType": "uint256",
          "name": "_tokenId",
          "type": "uint256"
        },
        {
          "internalType": "bytes",
          "name": "_data",
          "type": "bytes"
        }
      ],
      "name": "onERC721Received",
      "outputs": [
        {
          "internalType": "bytes4",
          "name": "",
          "type": "bytes4"
        }
      ],
      "stateMutability": "nonpayable",
      "type": "function"
    }
  ],
  "bytecode": {
    "object": "0x60a060405234801561001057600080fd5b5060405161060038038061060083398101604081905261002f91610040565b6001600160a01b0316608052610070565b60006020828403121561005257600080fd5b81516001600160a01b038116811461006957600080fd5b9392505050565b60805161056f6100916000396000818160870152610173015261056f6000f3fe608060405234801561001057600080fd5b506004361061004c5760003560e01c8063150b7a02146100515780636a7f3f6c146100825780638ebde500146100c1578063f5d140bd146100f4575b600080fd5b61006461005f3660046103db565b610109565b6040516001600160e01b031990911681526020015b60405180910390f35b6100a97f000000000000000000000000000000000000000000000000000000000000000081565b6040516001600160a01b039091168152602001610079565b6100e46100cf3660046104bb565b60006020819052908152604090205460ff1681565b6040519015158152602001610079565b6101076101023660046104df565b6102f3565b005b60208101516000906001600160e01b0319811663f5d140bd60e01b1461014257604051635f491c4360e01b815260040160405180910390fd5b82516003198101600485019081529360009182916101689181016020019060240161050b565b9150915060006101977f000000000000000000000000000000000000000000000000000000000000000061030c565b33600090815260208990526040908190209051631b7ce04160e01b81526001600160a01b03868116600483015260248201869052604482018390529293509091831690631b7ce04190606401600060405180830381600087803b1580156101fd57600080fd5b505af1158015610211573d6000803e3d6000fd5b5050506001600160a01b03831660008181526020819052604090819020805460ff19166001179055518a92503391907fae654d602733e5af7f01c9bdc66adeb293b7a3c878db8d567c544e89397d2fb59061026f9088815260200190565b60405180910390a46040516323b872dd60e01b81523060048201526001600160a01b03831660248201526044810189905233906323b872dd90606401600060405180830381600087803b1580156102c557600080fd5b505af11580156102d9573d6000803e3d6000fd5b50630a85bd0160e11b9d9c50505050505050505050505050565b60405163902824c160e01b815260040160405180910390fd5b6000604051733d602d80600a3d3981f3363d3d373d3d3d363d7360601b81528260601b60148201526e5af43d82803e903d91602b57fd5bf360881b60288201526037816000f09150506001600160a01b0381166103a85760405162461bcd60e51b8152602060048201526016602482015275115490cc4c4d8dce8818dc99585d194819985a5b195960521b604482015260640160405180910390fd5b919050565b6001600160a01b03811681146103c257600080fd5b50565b634e487b7160e01b600052604160045260246000fd5b600080600080608085870312156103f157600080fd5b84356103fc816103ad565b9350602085013561040c816103ad565b925060408501359150606085013567ffffffffffffffff8082111561043057600080fd5b818701915087601f83011261044457600080fd5b813581811115610456576104566103c5565b604051601f8201601f19908116603f0116810190838211818310171561047e5761047e6103c5565b816040528281528a602084870101111561049757600080fd5b82602086016020830137600060208483010152809550505050505092959194509250565b6000602082840312156104cd57600080fd5b81356104d8816103ad565b9392505050565b600080604083850312156104f257600080fd5b82356104fd816103ad565b946020939093013593505050565b6000806040838503121561051e57600080fd5b8251610529816103ad565b602093909301519294929350505056fea2646970667358221220eac4fdc26c2c8a8a00fd8cd52ccb55e7cb9f9946fe3da257c47e4ad579800a8764736f6c634300080f0033",
    "linkReferences": {}
  },
  "methodIdentifiers": {
    "auctionImplementation()": "6a7f3f6c",
    "innerCreateAuction(address,uint256)": "f5d140bd",
    "isAuction(address)": "8ebde500",
    "onERC721Received(address,address,uint256,bytes)": "150b7a02"
  },
  "id": 16
}