{
  "abi": [
    {
      "inputs": [],
      "stateMutability": "nonpayable",
      "type": "constructor"
    },
    {
      "inputs": [],
      "name": "AlreadyInitialized",
      "type": "error"
    },
    {
      "inputs": [],
      "name": "InvalidInitialOwner",
      "type": "error"
    },
    {
      "inputs": [],
      "name": "InvalidProof",
      "type": "error"
    },
    {
      "inputs": [],
      "name": "InvalidRevealStartBlock",
      "type": "error"
    },
    {
      "inputs": [],
      "name": "InvalidTokenCommit",
      "type": "error"
    },
    {
      "inputs": [],
      "name": "NotOwner",
      "type": "error"
    },
    {
      "inputs": [],
      "name": "NotYetReveal",
      "type": "error"
    },
    {
      "inputs": [],
      "name": "NotYetRevealBlock",
      "type": "error"
    },
    {
      "inputs": [],
      "name": "RevealAlreadyStarted",
      "type": "error"
    },
    {
      "inputs": [],
      "name": "RevealNotOver",
      "type": "error"
    },
    {
      "inputs": [],
      "name": "RevealOver",
      "type": "error"
    },
    {
      "inputs": [],
      "name": "TransferOwnerToZero",
      "type": "error"
    },
    {
      "anonymous": false,
      "inputs": [
        {
          "indexed": true,
          "internalType": "address",
          "name": "account",
          "type": "address"
        },
        {
          "indexed": false,
          "internalType": "uint256",
          "name": "sendAmount",
          "type": "uint256"
        },
        {
          "indexed": false,
          "internalType": "uint256",
          "name": "totalPendingAmount",
          "type": "uint256"
        }
      ],
      "name": "AsyncSend",
      "type": "event"
    },
    {
      "anonymous": false,
      "inputs": [
        {
          "indexed": true,
          "internalType": "address",
          "name": "topBidder",
          "type": "address"
        },
        {
          "indexed": true,
          "internalType": "address",
          "name": "bidder",
          "type": "address"
        },
        {
          "indexed": false,
          "internalType": "uint256",
          "name": "topBid",
          "type": "uint256"
        },
        {
          "indexed": false,
          "internalType": "uint256",
          "name": "sndBid",
          "type": "uint256"
        },
        {
          "indexed": false,
          "internalType": "uint256",
          "name": "bid",
          "type": "uint256"
        }
      ],
      "name": "BidRevealed",
      "type": "event"
    },
    {
      "anonymous": false,
      "inputs": [
        {
          "indexed": true,
          "internalType": "address",
          "name": "previousOwner",
          "type": "address"
        },
        {
          "indexed": true,
          "internalType": "address",
          "name": "newOwner",
          "type": "address"
        }
      ],
      "name": "OwnershipTransferred",
      "type": "event"
    },
    {
      "anonymous": false,
      "inputs": [],
      "name": "RevealStarted",
      "type": "event"
    },
    {
      "anonymous": false,
      "inputs": [
        {
          "indexed": true,
          "internalType": "address",
          "name": "winner",
          "type": "address"
        },
        {
          "indexed": false,
          "internalType": "uint256",
          "name": "paidBid",
          "type": "uint256"
        },
        {
          "indexed": false,
          "internalType": "uint256",
          "name": "refund",
          "type": "uint256"
        }
      ],
      "name": "WinClaimed",
      "type": "event"
    },
    {
      "inputs": [
        {
          "internalType": "address",
          "name": "_collection",
          "type": "address"
        },
        {
          "internalType": "uint256",
          "name": "_tokenId",
          "type": "uint256"
        }
      ],
      "name": "claimWin",
      "outputs": [],
      "stateMutability": "nonpayable",
      "type": "function"
    },
    {
      "inputs": [
        {
          "internalType": "address",
          "name": "_bidder",
          "type": "address"
        },
        {
          "internalType": "uint256",
          "name": "_bid",
          "type": "uint256"
        },
        {
          "internalType": "bytes32",
          "name": "_subSalt",
          "type": "bytes32"
        }
      ],
      "name": "getBidDepositAddr",
      "outputs": [
        {
          "internalType": "bytes32",
          "name": "salt",
          "type": "bytes32"
        },
        {
          "internalType": "address",
          "name": "depositAddr",
          "type": "address"
        }
      ],
      "stateMutability": "view",
      "type": "function"
    },
    {
      "inputs": [
        {
          "internalType": "address",
          "name": "_initialOwner",
          "type": "address"
        },
        {
          "internalType": "uint256",
          "name": "_revealStartBlock",
          "type": "uint256"
        },
        {
          "internalType": "bytes32",
          "name": "_tokenCommit",
          "type": "bytes32"
        }
      ],
      "name": "initialize",
      "outputs": [],
      "stateMutability": "nonpayable",
      "type": "function"
    },
    {
      "inputs": [
        {
          "internalType": "bytes[]",
          "name": "data",
          "type": "bytes[]"
        }
      ],
      "name": "multicall",
      "outputs": [
        {
          "internalType": "bytes[]",
          "name": "results",
          "type": "bytes[]"
        }
      ],
      "stateMutability": "payable",
      "type": "function"
    },
    {
      "inputs": [],
      "name": "owner",
      "outputs": [
        {
          "internalType": "address",
          "name": "",
          "type": "address"
        }
      ],
      "stateMutability": "view",
      "type": "function"
    },
    {
      "inputs": [
        {
          "internalType": "address",
          "name": "",
          "type": "address"
        }
      ],
      "name": "pendingPulls",
      "outputs": [
        {
          "internalType": "uint256",
          "name": "",
          "type": "uint256"
        }
      ],
      "stateMutability": "view",
      "type": "function"
    },
    {
      "inputs": [
        {
          "internalType": "address",
          "name": "_addr",
          "type": "address"
        }
      ],
      "name": "pull",
      "outputs": [
        {
          "internalType": "uint256",
          "name": "totalPull",
          "type": "uint256"
        }
      ],
      "stateMutability": "nonpayable",
      "type": "function"
    },
    {
      "inputs": [
        {
          "internalType": "address",
          "name": "_bidder",
          "type": "address"
        },
        {
          "internalType": "uint256",
          "name": "_bid",
          "type": "uint256"
        },
        {
          "internalType": "bytes32",
          "name": "_subSalt",
          "type": "bytes32"
        },
        {
          "internalType": "uint256",
          "name": "_balAtSnapshot",
          "type": "uint256"
        }
      ],
      "name": "reveal",
      "outputs": [
        {
          "internalType": "address",
          "name": "bidAddr",
          "type": "address"
        }
      ],
      "stateMutability": "nonpayable",
      "type": "function"
    },
    {
      "inputs": [],
      "name": "revealStartBlock",
      "outputs": [
        {
          "internalType": "uint96",
          "name": "",
          "type": "uint96"
        }
      ],
      "stateMutability": "view",
      "type": "function"
    },
    {
      "inputs": [],
      "name": "sndBid",
      "outputs": [
        {
          "internalType": "uint128",
          "name": "",
          "type": "uint128"
        }
      ],
      "stateMutability": "view",
      "type": "function"
    },
    {
      "inputs": [],
      "name": "startReveal",
      "outputs": [],
      "stateMutability": "nonpayable",
      "type": "function"
    },
    {
      "inputs": [],
      "name": "storedBlockHash",
      "outputs": [
        {
          "internalType": "bytes32",
          "name": "",
          "type": "bytes32"
        }
      ],
      "stateMutability": "view",
      "type": "function"
    },
    {
      "inputs": [],
      "name": "tokenCommit",
      "outputs": [
        {
          "internalType": "bytes32",
          "name": "",
          "type": "bytes32"
        }
      ],
      "stateMutability": "view",
      "type": "function"
    },
    {
      "inputs": [],
      "name": "topBid",
      "outputs": [
        {
          "internalType": "uint128",
          "name": "",
          "type": "uint128"
        }
      ],
      "stateMutability": "view",
      "type": "function"
    },
    {
      "inputs": [],
      "name": "topBidder",
      "outputs": [
        {
          "internalType": "address",
          "name": "",
          "type": "address"
        }
      ],
      "stateMutability": "view",
      "type": "function"
    },
    {
      "inputs": [
        {
          "internalType": "address",
          "name": "_newOwner",
          "type": "address"
        }
      ],
      "name": "transferOwnership",
      "outputs": [],
      "stateMutability": "nonpayable",
      "type": "function"
    },
    {
      "stateMutability": "payable",
      "type": "receive"
    }
  ],
  "bytecode": {
    "object": "0x608060405234801561001057600080fd5b5061deae600160a01b0319600155610dff8061002d6000396000f3fe6080604052600436106100f75760003560e01c8063ac9650d81161008a578063cd18a2a611610059578063cd18a2a6146102cf578063ce3a3710146102ef578063e736ca591461032c578063f2fde38b1461035957600080fd5b8063ac9650d814610245578063ad72202b14610265578063b0bf74c11461027a578063becddc3d1461029057600080fd5b8063641c373b116100c6578063641c373b146101c857806368c10505146101e85780636aacd6161461020f5780638da5cb5b1461022557600080fd5b806301333f06146101035780631b7ce0411461014057806352d1123814610162578063636bf7301461019057600080fd5b366100fe57005b600080fd5b34801561010f57600080fd5b50600354610123906001600160a01b031681565b6040516001600160a01b0390911681526020015b60405180910390f35b34801561014c57600080fd5b5061016061015b366004610b98565b610379565b005b34801561016e57600080fd5b5061018261017d366004610bcb565b61043a565b604051908152602001610137565b34801561019c57600080fd5b506004546101b0906001600160801b031681565b6040516001600160801b039091168152602001610137565b3480156101d457600080fd5b506101236101e3366004610be6565b610481565b3480156101f457600080fd5b506004546101b090600160801b90046001600160801b031681565b34801561021b57600080fd5b5061018260055481565b34801561023157600080fd5b50600154610123906001600160a01b031681565b610258610253366004610c1f565b610694565b6040516101379190610c94565b34801561027157600080fd5b50610160610713565b34801561028657600080fd5b5061018260025481565b34801561029c57600080fd5b506001546102b790600160a01b90046001600160601b031681565b6040516001600160601b039091168152602001610137565b3480156102db57600080fd5b506101606102ea366004610d2f565b6107cc565b3480156102fb57600080fd5b5061030f61030a366004610b98565b610955565b604080519283526001600160a01b03909116602083015201610137565b34801561033857600080fd5b50610182610347366004610bcb565b60006020819052908152604090205481565b34801561036557600080fd5b50610160610374366004610bcb565b6109a5565b6001546001600160a01b0316156103a25760405162dc149f60e41b815260040160405180910390fd5b6001600160a01b0383166103c95760405163267eaa8160e21b815260040160405180910390fd5b4382116103e9576040516317a53f2360e11b815260040160405180910390fd5b6001600160a01b038316600160a01b6001600160601b0384160281176001556040516000907f8be0079c531659141344cd1fd0a4f28419497f9722a3daafe3b4186f6b6457e0908290a36005555050565b6001600160a01b038116600090815260208190526040902054801561047c576001600160a01b03821660009081526020819052604081205561047c8282610a5b565b919050565b600154600090819043906104a790600160a01b90046001600160601b0316611c20610d6f565b6001600160601b031610156104cf576040516328c79d5560e11b815260040160405180910390fd5b600254806104f057604051630a542d4360e01b815260040160405180910390fd5b6000806104fe898989610955565b915091506000479050673d3d3d3d47335af160005282600860186000f595506105278147610d9a565b94505050505060006105398685610ab5565b905060006105478284610d9a565b6004546003549192506001600160801b0380821692600160801b90920416906001600160a01b0316828511156105dc5761058a81846001600160801b0316610acd565b5050600380546001600160a01b038b166001600160a01b03199091161790556001600160801b03838116908216600160801b026fffffffffffffffffffffffffffffffff191617600455829089610621565b600454600160801b90046001600160801b031685111561061457600480546001600160801b03808816600160801b0291161790558491505b61061e8585610db1565b93505b61062b8b85610acd565b604080516001600160801b038086168252841660208201529081018690526001600160a01b03808d1691908316907f7f749dfc3f8dd6da5dd55f4ded584b12b39d0dc9f9333f3a467f75d44a4e96cb9060600160405180910390a3505050505050949350505050565b6060811561070d5750604051818152602001600582901b808483378101805b825185018035602082018337600080823584305af46106d6573d6000803e3d6000fd5b508083526020830192503d81523d6000602083013e3d01603f0167ffffffffffffffe0168183106106b35760405192508060405250505b92915050565b6002541561073457604051635da6a4a160e11b815260040160405180910390fd5b600154600160a01b90046001600160601b031643811061076757604051638bbce02d60e01b815260040160405180910390fd5b61077c61077661010043610d9a565b82610b72565b40600255600180546001600160a01b0316600160a01b436001600160601b0316021790556040517f3bcc93d35219aa0512d7c0d1ca10b0231f473e3d5f9396877d1b7215ee0ab3d590600090a150565b60015443906107ed90600160a01b90046001600160601b0316611c20610d6f565b6001600160601b0316106108145760405163b317752160e01b815260040160405180910390fd5b6000828152602082905260409020600554811461084457604051630309809960e31b815260040160405180910390fd5b600354604051632142170760e11b81523060048201526001600160a01b03918216602482015260448101849052908416906342842e0e90606401600060405180830381600087803b15801561089857600080fd5b505af11580156108ac573d6000803e3d6000fd5b5050600060058190556003546004546001600160a01b0390911693506001600160801b03600160801b8204811693506108e791849116610d9a565b90506108f38382610acd565b600154610909906001600160a01b031683610acd565b60408051838152602081018390526001600160a01b038516917f32c1ffa2d64a48a72c24ae3e096197a2f77804340592434296903bbf76981632910160405180910390a2505050505050565b673d3d3d3d47335af16000526008601820604080519485526020850193909352918301526060822030601484015260ff83526034830181905260548301919091526055601f909201919091209091565b6001600160a01b0381166109cc57604051634e08abab60e01b815260040160405180910390fd5b6001546001600160a01b03163381146109f8576040516330cd747160e01b815260040160405180910390fd5b816001600160a01b0316816001600160a01b03167f8be0079c531659141344cd1fd0a4f28419497f9722a3daafe3b4186f6b6457e060405160405180910390a350600180546001600160a01b0319166001600160a01b0392909216919091179055565b600080600080600085875af1905080610ab05760405162461bcd60e51b815260206004820152601360248201527211551217d514905394d1915497d19052531151606a1b604482015260640160405180910390fd5b505050565b6000818310610ac45781610ac6565b825b9392505050565b8015610b6e576001600160a01b038216610af0576001546001600160a01b031691505b6001600160a01b038216600090815260208190526040812054610b14908390610db1565b6001600160a01b03841660008181526020818152604091829020849055815186815290810184905292935090917fb00a932bf706109fd167206f270b85d06508f652cd920fc2ace38b3dd5df955f910160405180910390a2505b5050565b6000818311610ac45781610ac6565b80356001600160a01b038116811461047c57600080fd5b600080600060608486031215610bad57600080fd5b610bb684610b81565b95602085013595506040909401359392505050565b600060208284031215610bdd57600080fd5b610ac682610b81565b60008060008060808587031215610bfc57600080fd5b610c0585610b81565b966020860135965060408601359560600135945092505050565b60008060208385031215610c3257600080fd5b823567ffffffffffffffff80821115610c4a57600080fd5b818501915085601f830112610c5e57600080fd5b813581811115610c6d57600080fd5b8660208260051b8501011115610c8257600080fd5b60209290920196919550909350505050565b6000602080830181845280855180835260408601915060408160051b87010192508387016000805b83811015610d2157888603603f1901855282518051808852835b81811015610cf1578281018a01518982018b01528901610cd6565b81811115610d0157848a838b0101525b50601f01601f191696909601870195509386019391860191600101610cbc565b509398975050505050505050565b60008060408385031215610d4257600080fd5b610d4b83610b81565b946020939093013593505050565b634e487b7160e01b600052601160045260246000fd5b60006001600160601b03808316818516808303821115610d9157610d91610d59565b01949350505050565b600082821015610dac57610dac610d59565b500390565b60008219821115610dc457610dc4610d59565b50019056fea26469706673582212209dc42954a9b0eb0968b37315e170332459b78025860825882200fa137ea515e764736f6c634300080f0033",
    "linkReferences": {}
  },
  "methodIdentifiers": {
    "claimWin(address,uint256)": "cd18a2a6",
    "getBidDepositAddr(address,uint256,bytes32)": "ce3a3710",
    "initialize(address,uint256,bytes32)": "1b7ce041",
    "multicall(bytes[])": "ac9650d8",
    "owner()": "8da5cb5b",
    "pendingPulls(address)": "e736ca59",
    "pull(address)": "52d11238",
    "reveal(address,uint256,bytes32,uint256)": "641c373b",
    "revealStartBlock()": "becddc3d",
    "sndBid()": "68c10505",
    "startReveal()": "ad72202b",
    "storedBlockHash()": "b0bf74c1",
    "tokenCommit()": "6aacd616",
    "topBid()": "636bf730",
    "topBidder()": "01333f06",
    "transferOwnership(address)": "f2fde38b"
  },
  "id": 21
}