{
  "abi": [
    {
      "inputs": [],
      "stateMutability": "nonpayable",
      "type": "constructor"
    },
    {
      "inputs": [],
      "name": "AlreadyInitialized",
      "type": "error"
    },
    {
      "inputs": [],
      "name": "InvalidInitialOwner",
      "type": "error"
    },
    {
      "inputs": [],
      "name": "InvalidProof",
      "type": "error"
    },
    {
      "inputs": [],
      "name": "InvalidRevealStartBlock",
      "type": "error"
    },
    {
      "inputs": [],
      "name": "InvalidTokenCommit",
      "type": "error"
    },
    {
      "inputs": [],
      "name": "NotOwner",
      "type": "error"
    },
    {
      "inputs": [],
      "name": "NotYetReveal",
      "type": "error"
    },
    {
      "inputs": [],
      "name": "NotYetRevealBlock",
      "type": "error"
    },
    {
      "inputs": [],
      "name": "RevealAlreadyStarted",
      "type": "error"
    },
    {
      "inputs": [],
      "name": "RevealNotOver",
      "type": "error"
    },
    {
      "inputs": [],
      "name": "RevealOver",
      "type": "error"
    },
    {
      "inputs": [],
      "name": "TransferOwnerToZero",
      "type": "error"
    },
    {
      "anonymous": false,
      "inputs": [
        {
          "indexed": true,
          "internalType": "address",
          "name": "account",
          "type": "address"
        },
        {
          "indexed": false,
          "internalType": "uint256",
          "name": "sendAmount",
          "type": "uint256"
        },
        {
          "indexed": false,
          "internalType": "uint256",
          "name": "totalPendingAmount",
          "type": "uint256"
        }
      ],
      "name": "AsyncSend",
      "type": "event"
    },
    {
      "anonymous": false,
      "inputs": [
        {
          "indexed": true,
          "internalType": "address",
          "name": "topBidder",
          "type": "address"
        },
        {
          "indexed": true,
          "internalType": "address",
          "name": "bidder",
          "type": "address"
        },
        {
          "indexed": false,
          "internalType": "uint256",
          "name": "topBid",
          "type": "uint256"
        },
        {
          "indexed": false,
          "internalType": "uint256",
          "name": "sndBid",
          "type": "uint256"
        },
        {
          "indexed": false,
          "internalType": "uint256",
          "name": "bid",
          "type": "uint256"
        }
      ],
      "name": "BidRevealed",
      "type": "event"
    },
    {
      "anonymous": false,
      "inputs": [
        {
          "indexed": true,
          "internalType": "address",
          "name": "previousOwner",
          "type": "address"
        },
        {
          "indexed": true,
          "internalType": "address",
          "name": "newOwner",
          "type": "address"
        }
      ],
      "name": "OwnershipTransferred",
      "type": "event"
    },
    {
      "anonymous": false,
      "inputs": [],
      "name": "RevealStarted",
      "type": "event"
    },
    {
      "anonymous": false,
      "inputs": [
        {
          "indexed": true,
          "internalType": "address",
          "name": "winner",
          "type": "address"
        },
        {
          "indexed": false,
          "internalType": "uint256",
          "name": "paidBid",
          "type": "uint256"
        },
        {
          "indexed": false,
          "internalType": "uint256",
          "name": "refund",
          "type": "uint256"
        }
      ],
      "name": "WinClaimed",
      "type": "event"
    },
    {
      "inputs": [
        {
          "internalType": "address",
          "name": "_collection",
          "type": "address"
        },
        {
          "internalType": "uint256",
          "name": "_tokenId",
          "type": "uint256"
        }
      ],
      "name": "claimWin",
      "outputs": [],
      "stateMutability": "nonpayable",
      "type": "function"
    },
    {
      "inputs": [
        {
          "internalType": "address",
          "name": "_bidder",
          "type": "address"
        },
        {
          "internalType": "uint256",
          "name": "_bid",
          "type": "uint256"
        },
        {
          "internalType": "bytes32",
          "name": "_subSalt",
          "type": "bytes32"
        }
      ],
      "name": "getBidDepositAddr",
      "outputs": [
        {
          "internalType": "bytes32",
          "name": "salt",
          "type": "bytes32"
        },
        {
          "internalType": "address",
          "name": "depositAddr",
          "type": "address"
        }
      ],
      "stateMutability": "view",
      "type": "function"
    },
    {
      "inputs": [
        {
          "internalType": "address",
          "name": "_initialOwner",
          "type": "address"
        },
        {
          "internalType": "uint256",
          "name": "_revealStartBlock",
          "type": "uint256"
        },
        {
          "internalType": "bytes32",
          "name": "_tokenCommit",
          "type": "bytes32"
        }
      ],
      "name": "initialize",
      "outputs": [],
      "stateMutability": "nonpayable",
      "type": "function"
    },
    {
      "inputs": [
        {
          "internalType": "bytes[]",
          "name": "data",
          "type": "bytes[]"
        }
      ],
      "name": "multicall",
      "outputs": [
        {
          "internalType": "bytes[]",
          "name": "results",
          "type": "bytes[]"
        }
      ],
      "stateMutability": "payable",
      "type": "function"
    },
    {
      "inputs": [],
      "name": "owner",
      "outputs": [
        {
          "internalType": "address",
          "name": "",
          "type": "address"
        }
      ],
      "stateMutability": "view",
      "type": "function"
    },
    {
      "inputs": [
        {
          "internalType": "address",
          "name": "",
          "type": "address"
        }
      ],
      "name": "pendingPulls",
      "outputs": [
        {
          "internalType": "uint256",
          "name": "",
          "type": "uint256"
        }
      ],
      "stateMutability": "view",
      "type": "function"
    },
    {
      "inputs": [
        {
          "internalType": "address",
          "name": "_addr",
          "type": "address"
        }
      ],
      "name": "pull",
      "outputs": [
        {
          "internalType": "uint256",
          "name": "totalPull",
          "type": "uint256"
        }
      ],
      "stateMutability": "nonpayable",
      "type": "function"
    },
    {
      "inputs": [
        {
          "internalType": "address",
          "name": "_bidder",
          "type": "address"
        },
        {
          "internalType": "uint256",
          "name": "_bid",
          "type": "uint256"
        },
        {
          "internalType": "bytes32",
          "name": "_subSalt",
          "type": "bytes32"
        },
        {
          "internalType": "uint256",
          "name": "_balAtSnapshot",
          "type": "uint256"
        },
        {
          "components": [
            {
              "internalType": "bytes32",
              "name": "hash",
              "type": "bytes32"
            },
            {
              "internalType": "bytes32",
              "name": "parentHash",
              "type": "bytes32"
            },
            {
              "internalType": "bytes32",
              "name": "sha3Uncles",
              "type": "bytes32"
            },
            {
              "internalType": "address",
              "name": "miner",
              "type": "address"
            },
            {
              "internalType": "bytes32",
              "name": "stateRoot",
              "type": "bytes32"
            },
            {
              "internalType": "bytes32",
              "name": "transactionsRoot",
              "type": "bytes32"
            },
            {
              "internalType": "bytes32",
              "name": "receiptsRoot",
              "type": "bytes32"
            },
            {
              "internalType": "bytes",
              "name": "logsBloom",
              "type": "bytes"
            },
            {
              "internalType": "uint256",
              "name": "difficulty",
              "type": "uint256"
            },
            {
              "internalType": "uint256",
              "name": "number",
              "type": "uint256"
            },
            {
              "internalType": "uint256",
              "name": "gasLimit",
              "type": "uint256"
            },
            {
              "internalType": "uint256",
              "name": "gasUsed",
              "type": "uint256"
            },
            {
              "internalType": "uint256",
              "name": "timestamp",
              "type": "uint256"
            },
            {
              "internalType": "bytes",
              "name": "extraData",
              "type": "bytes"
            },
            {
              "internalType": "bytes32",
              "name": "mixHash",
              "type": "bytes32"
            },
            {
              "internalType": "uint64",
              "name": "nonce",
              "type": "uint64"
            },
            {
              "internalType": "uint256",
              "name": "totalDifficulty",
              "type": "uint256"
            },
            {
              "internalType": "uint256",
              "name": "baseFeePerGas",
              "type": "uint256"
            }
          ],
          "internalType": "struct EthereumDecoder.BlockHeader",
          "name": "_header",
          "type": "tuple"
        },
        {
          "components": [
            {
              "internalType": "bytes32",
              "name": "expectedRoot",
              "type": "bytes32"
            },
            {
              "internalType": "bytes",
              "name": "key",
              "type": "bytes"
            },
            {
              "internalType": "bytes[]",
              "name": "proof",
              "type": "bytes[]"
            },
            {
              "internalType": "uint256",
              "name": "keyIndex",
              "type": "uint256"
            },
            {
              "internalType": "uint256",
              "name": "proofIndex",
              "type": "uint256"
            },
            {
              "internalType": "bytes",
              "name": "expectedValue",
              "type": "bytes"
            }
          ],
          "internalType": "struct MPT.MerkleProof",
          "name": "_accountDataProof",
          "type": "tuple"
        }
      ],
      "name": "reveal",
      "outputs": [
        {
          "internalType": "address",
          "name": "bidAddr",
          "type": "address"
        }
      ],
      "stateMutability": "nonpayable",
      "type": "function"
    },
    {
      "inputs": [],
      "name": "revealStartBlock",
      "outputs": [
        {
          "internalType": "uint96",
          "name": "",
          "type": "uint96"
        }
      ],
      "stateMutability": "view",
      "type": "function"
    },
    {
      "inputs": [],
      "name": "sndBid",
      "outputs": [
        {
          "internalType": "uint128",
          "name": "",
          "type": "uint128"
        }
      ],
      "stateMutability": "view",
      "type": "function"
    },
    {
      "inputs": [],
      "name": "startReveal",
      "outputs": [],
      "stateMutability": "nonpayable",
      "type": "function"
    },
    {
      "inputs": [],
      "name": "storedBlockHash",
      "outputs": [
        {
          "internalType": "bytes32",
          "name": "",
          "type": "bytes32"
        }
      ],
      "stateMutability": "view",
      "type": "function"
    },
    {
      "inputs": [],
      "name": "tokenCommit",
      "outputs": [
        {
          "internalType": "bytes32",
          "name": "",
          "type": "bytes32"
        }
      ],
      "stateMutability": "view",
      "type": "function"
    },
    {
      "inputs": [],
      "name": "topBid",
      "outputs": [
        {
          "internalType": "uint128",
          "name": "",
          "type": "uint128"
        }
      ],
      "stateMutability": "view",
      "type": "function"
    },
    {
      "inputs": [],
      "name": "topBidder",
      "outputs": [
        {
          "internalType": "address",
          "name": "",
          "type": "address"
        }
      ],
      "stateMutability": "view",
      "type": "function"
    },
    {
      "inputs": [
        {
          "internalType": "address",
          "name": "_newOwner",
          "type": "address"
        }
      ],
      "name": "transferOwnership",
      "outputs": [],
      "stateMutability": "nonpayable",
      "type": "function"
    },
    {
      "stateMutability": "payable",
      "type": "receive"
    }
  ],
  "bytecode": {
    "object": "0x608060405234801561001057600080fd5b5061deae600160a01b0319600155612f858061002d6000396000f3fe6080604052600436106100f75760003560e01c8063ac9650d81161008a578063cd18a2a611610059578063cd18a2a6146102cf578063ce3a3710146102ef578063e736ca591461032c578063f2fde38b1461035957600080fd5b8063ac9650d814610245578063ad72202b14610265578063b0bf74c11461027a578063becddc3d1461029057600080fd5b806368c10505116100c657806368c10505146101c85780636aacd616146101ef5780636d9b53d7146102055780638da5cb5b1461022557600080fd5b806301333f06146101035780631b7ce0411461014057806352d1123814610162578063636bf7301461019057600080fd5b366100fe57005b600080fd5b34801561010f57600080fd5b50600354610123906001600160a01b031681565b6040516001600160a01b0390911681526020015b60405180910390f35b34801561014c57600080fd5b5061016061015b3660046127b4565b610379565b005b34801561016e57600080fd5b5061018261017d3660046127e7565b61043a565b604051908152602001610137565b34801561019c57600080fd5b506004546101b0906001600160801b031681565b6040516001600160801b039091168152602001610137565b3480156101d457600080fd5b506004546101b090600160801b90046001600160801b031681565b3480156101fb57600080fd5b5061018260055481565b34801561021157600080fd5b50610123610220366004612a68565b610481565b34801561023157600080fd5b50600154610123906001600160a01b031681565b610258610253366004612c07565b6106c0565b6040516101379190612c7b565b34801561027157600080fd5b5061016061073f565b34801561028657600080fd5b5061018260025481565b34801561029c57600080fd5b506001546102b790600160a01b90046001600160601b031681565b6040516001600160601b039091168152602001610137565b3480156102db57600080fd5b506101606102ea366004612d16565b6107f8565b3480156102fb57600080fd5b5061030f61030a3660046127b4565b610981565b604080519283526001600160a01b03909116602083015201610137565b34801561033857600080fd5b506101826103473660046127e7565b60006020819052908152604090205481565b34801561036557600080fd5b506101606103743660046127e7565b6109d1565b6001546001600160a01b0316156103a25760405162dc149f60e41b815260040160405180910390fd5b6001600160a01b0383166103c95760405163267eaa8160e21b815260040160405180910390fd5b4382116103e9576040516317a53f2360e11b815260040160405180910390fd5b6001600160a01b038316600160a01b6001600160601b0384160281176001556040516000907f8be0079c531659141344cd1fd0a4f28419497f9722a3daafe3b4186f6b6457e0908290a36005555050565b6001600160a01b038116600090815260208190526040902054801561047c576001600160a01b03821660009081526020819052604081205561047c8282610a87565b919050565b600154600090819043906104a790600160a01b90046001600160601b0316611c20612d56565b6001600160601b031610156104cf576040516328c79d5560e11b815260040160405180910390fd5b600254806104f057604051630a542d4360e01b815260040160405180910390fd5b6000806104fe8b8b8b610981565b9150915061050f87878a8487610ae2565b61052c576040516309bde33960e01b815260040160405180910390fd5b6000479050673d3d3d3d47335af160005282600860186000f595506105518147612d81565b94505050505060006105638887610b0c565b905060006105718284612d81565b6004546003549192506001600160801b0380821692600160801b90920416906001600160a01b031682851115610606576105b481846001600160801b0316610b24565b5050600380546001600160a01b038d166001600160a01b03199091161790556001600160801b03838116908216600160801b026fffffffffffffffffffffffffffffffff19161760045582908b61064b565b600454600160801b90046001600160801b031685111561063e57600480546001600160801b03808816600160801b0291161790558491505b6106488585612d98565b93505b6106558d85610b24565b604080516001600160801b038086168252841660208201529081018690526001600160a01b03808f1691908316907f7f749dfc3f8dd6da5dd55f4ded584b12b39d0dc9f9333f3a467f75d44a4e96cb9060600160405180910390a35050505050509695505050505050565b606081156107395750604051818152602001600582901b808483378101805b825185018035602082018337600080823584305af4610702573d6000803e3d6000fd5b508083526020830192503d81523d6000602083013e3d01603f0167ffffffffffffffe0168183106106df5760405192508060405250505b92915050565b6002541561076057604051635da6a4a160e11b815260040160405180910390fd5b600154600160a01b90046001600160601b031643811061079357604051638bbce02d60e01b815260040160405180910390fd5b6107a86107a261010043612d81565b82610bc9565b40600255600180546001600160a01b0316600160a01b436001600160601b0316021790556040517f3bcc93d35219aa0512d7c0d1ca10b0231f473e3d5f9396877d1b7215ee0ab3d590600090a150565b600154439061081990600160a01b90046001600160601b0316611c20612d56565b6001600160601b0316106108405760405163b317752160e01b815260040160405180910390fd5b6000828152602082905260409020600554811461087057604051630309809960e31b815260040160405180910390fd5b600354604051632142170760e11b81523060048201526001600160a01b03918216602482015260448101849052908416906342842e0e90606401600060405180830381600087803b1580156108c457600080fd5b505af11580156108d8573d6000803e3d6000fd5b5050600060058190556003546004546001600160a01b0390911693506001600160801b03600160801b82048116935061091391849116612d81565b905061091f8382610b24565b600154610935906001600160a01b031683610b24565b60408051838152602081018390526001600160a01b038516917f32c1ffa2d64a48a72c24ae3e096197a2f77804340592434296903bbf76981632910160405180910390a2505050505050565b673d3d3d3d47335af16000526008601820604080519485526020850193909352918301526060822030601484015260ff83526034830181905260548301919091526055601f909201919091209091565b6001600160a01b0381166109f857604051634e08abab60e01b815260040160405180910390fd5b6001546001600160a01b0316338114610a24576040516330cd747160e01b815260040160405180910390fd5b816001600160a01b0316816001600160a01b03167f8be0079c531659141344cd1fd0a4f28419497f9722a3daafe3b4186f6b6457e060405160405180910390a350600180546001600160a01b0319166001600160a01b0392909216919091179055565b600080600080600085875af1905080610add5760405162461bcd60e51b815260206004820152601360248201527211551217d514905394d1915497d19052531151606a1b60448201526064015b60405180910390fd5b505050565b600081610aee87610bd8565b148015610b025750610b0286868686610bf1565b9695505050505050565b6000818310610b1b5781610b1d565b825b9392505050565b8015610bc5576001600160a01b038216610b47576001546001600160a01b031691505b6001600160a01b038216600090815260208190526040812054610b6b908390612d98565b6001600160a01b03841660008181526020818152604091829020849055815186815290810184905292935090917fb00a932bf706109fd167206f270b85d06508f652cd920fc2ace38b3dd5df955f910160405180910390a2505b5050565b6000818311610b1b5781610b1d565b6000610be382610d7d565b805190602001209050919050565b8251608085015160009114610c0857506000610d75565b610c11826110f3565b8051906020012084602001518051906020012014610c3157506000610d75565b60408051600480825260a08201909252600091816020015b6060815260200190600190039081610c49579050509050610c6a600061113c565b81600081518110610c7d57610c7d612db0565b6020026020010181905250610c918461113c565b81600181518110610ca457610ca4612db0565b6020026020010181905250610cd87f56e81f171bcc55a6ff8345e692c0f86e5b48e01b996cadc001622fb5e363b42161113c565b81600281518110610ceb57610ceb612db0565b6020026020010181905250610d1f7fc5d2460186f7233c927e7db2dcc703c0e500b653ca82273b7bfad8045d85a47061113c565b81600381518110610d3257610d32612db0565b60200260200101819052508460a0015180519060200120610d528261114f565b8051906020012014610d68576000915050610d75565b610d7185611173565b9150505b949350505050565b604080516010808252610220820190925260609160009190816020015b6060815260200190600190039081610d9a579050509050610ddf8360200151604051602001610dcb91815260200190565b604051602081830303815290604052611367565b81600081518110610df257610df2612db0565b6020026020010181905250610e178360400151604051602001610dcb91815260200190565b81600181518110610e2a57610e2a612db0565b6020026020010181905250610e4283606001516113b7565b81600281518110610e5557610e55612db0565b6020026020010181905250610e7a8360800151604051602001610dcb91815260200190565b81600381518110610e8d57610e8d612db0565b6020026020010181905250610eb28360a00151604051602001610dcb91815260200190565b81600481518110610ec557610ec5612db0565b6020026020010181905250610eea8360c00151604051602001610dcb91815260200190565b81600581518110610efd57610efd612db0565b6020026020010181905250610f158360e00151611367565b81600681518110610f2857610f28612db0565b6020026020010181905250610f4183610100015161113c565b81600781518110610f5457610f54612db0565b6020026020010181905250610f6d83610120015161113c565b81600881518110610f8057610f80612db0565b6020026020010181905250610f9983610140015161113c565b81600981518110610fac57610fac612db0565b6020026020010181905250610fc583610160015161113c565b81600a81518110610fd857610fd8612db0565b6020026020010181905250610ff183610180015161113c565b81600b8151811061100457611004612db0565b602002602001018190525061101d836101a00151611367565b81600c8151811061103057611030612db0565b6020026020010181905250611056836101c00151604051602001610dcb91815260200190565b81600d8151811061106957611069612db0565b60200260200101819052506110a0836101e00151604051602001610dcb919060c09190911b6001600160c01b031916815260080190565b81600e815181106110b3576110b3612db0565b60200260200101819052506110cc83610220015161113c565b81600f815181106110df576110df612db0565b6020026020010181905250610b1d8161114f565b6060816000526014600c20604051915060608201604052604082526020820160405b801561113457600181039050600f8316818301538260041c9250611115565b505050919050565b606061073961114a836113da565b611367565b6060600061115c83611514565b9050610b1d61116d825160c0611647565b826117fd565b600080826040015183608001518151811061119057611190612db0565b6020026020010151905060006111d56111d08360408051808201825260008082526020918201528151808301909252825182529182019181019190915290565b61187a565b9050836060015160000361124d57835182516020840120146112485760405162461bcd60e51b815260206004820152602660248201527f7665726966795472696550726f6f6620726f6f74206e6f6465206861736820696044820152651b9d985b1a5960d21b6064820152608401610ad4565b611307565b6020825110156112ba57600061126a61126583611929565b6119c9565b855190915081146112b45760405162461bcd60e51b81526020600482015260146024820152733b32b934b33caa3934b2a83937b7b3101e10199960611b6044820152606401610ad4565b50611307565b835182516020840120146113075760405162461bcd60e51b81526020600482015260146024820152737665726966795472696550726f6f6620656c736560601b6044820152606401610ad4565b60006113168260000151611a85565b9050806011036113325761132985611b0a565b95945050505050565b80600203611344576113298286611ca6565b8460a001515160000361135c57506001949350505050565b506000949350505050565b60608082516001148015611396575060808360008151811061138b5761138b612db0565b016020015160f81c11155b156113a2575081610739565b610b1d6113b184516080611647565b846117fd565b60408051600560a21b8318601482015260348101909152606090610b1d81611367565b6040805160208082528183019092526060916000919060208201818036833701905050905082602082015260005b602081101561144b5781818151811061142357611423612db0565b01602001516001600160f81b03191660000361144b578061144381612dc6565b915050611408565b6000611458826020612d81565b6001600160401b0381111561146f5761146f612802565b6040519080825280601f01601f191660200182016040528015611499576020820181803683370190505b50905060005b815181101561150b5783836114b381612dc6565b9450815181106114c5576114c5612db0565b602001015160f81c60f81b8282815181106114e2576114e2612db0565b60200101906001600160f81b031916908160001a9053508061150381612dc6565b91505061149f565b50949350505050565b606081516000036115385760408051600080825260208201909252905b5092915050565b6000805b835181101561157f5783818151811061155757611557612db0565b6020026020010151518261156b9190612d98565b91508061157781612dc6565b91505061153c565b6000826001600160401b0381111561159957611599612802565b6040519080825280601f01601f1916602001820160405280156115c3576020820181803683370190505b50600092509050602081015b855183101561150b5760008684815181106115ec576115ec612db0565b60200260200101519050600060208201905061160a83828451611f79565b87858151811061161c5761161c612db0565b602002602001015151836116309190612d98565b92505050828061163f90612dc6565b9350506115cf565b60608060388410156116b1576040805160018082528183019092529060208201818036833701905050905061167c8385612d98565b601f1a60f81b8160008151811061169557611695612db0565b60200101906001600160f81b031916908160001a905350610b1d565b600060015b6116c08187612df5565b156116e657816116cf81612dc6565b92506116df905061010082612e09565b90506116b6565b6116f1826001612d98565b6001600160401b0381111561170857611708612802565b6040519080825280601f01601f191660200182016040528015611732576020820181803683370190505b50925061173f8583612d98565b61174a906037612d98565b601f1a60f81b8360008151811061176357611763612db0565b60200101906001600160f81b031916908160001a905350600190505b8181116117f4576101006117938284612d81565b61179f90610100612f0c565b6117a99088612df5565b6117b39190612f18565b601f1a60f81b8382815181106117cb576117cb612db0565b60200101906001600160f81b031916908160001a905350806117ec81612dc6565b91505061177f565b50509392505050565b6060806040519050835180825260208201818101602087015b8183101561182e578051835260209283019201611816565b50855184518101855292509050808201602086015b8183101561185b578051835260209283019201611843565b508651929092011591909101601f01601f191660405250905092915050565b60408051608081018252600091810182815260608201839052815260208101919091526118a682611ff1565b6118f25760405162461bcd60e51b815260206004820152601f60248201527f524c504465636f646572206974657261746f72206973206e6f74206c697374006044820152606401610ad4565b6000611901836020015161202c565b83602001516119109190612d98565b6040805180820190915293845260208401525090919050565b6040805180820190915260008082526020820152611946826120a7565b6119925760405162461bcd60e51b815260206004820152601f60248201527f524c504465636f646572206974657261746f7220686173206e6f206e657874006044820152606401610ad4565b602082015160006119a2826120cb565b90506119ae8183612d98565b60209485015260408051808201909152908152928301525090565b8051600090158015906119de57508151602110155b611a2a5760405162461bcd60e51b815260206004820181905260248201527f524c504465636f64657220746f55696e7420696e76616c6964206c656e6774686044820152606401610ad4565b6000611a39836020015161202c565b90506000818460000151611a4d9190612d81565b9050600080838660200151611a629190612d98565b905080519150602083101561150b57506020919091036101000a90049392505050565b80516000908103611a9857506000919050565b600080611aa8846020015161202c565b8460200151611ab79190612d98565b9050600084600001518560200151611acf9190612d98565b90505b80821015611b0157611ae3826120cb565b611aed9083612d98565b915082611af981612dc6565b935050611ad2565b50909392505050565b6000808260400151836080015181518110611b2757611b27612db0565b60200260200101519050826020015151836060015110611bc9576000611b9e611b7f611b7a8460408051808201825260008082526020918201528151808301909252825182529182019181019190915290565b61216f565b601081518110611b9157611b91612db0565b60200260200101516122d1565b90508360a0015180519060200120818051906020012003611bc3575060019392505050565b50611c87565b60008360200151846060015181518110611be557611be5612db0565b016020015160f81c90506000611c39611c28611b7a8560408051808201825260008082526020918201528151808301909252825182529182019181019190915290565b8381518110611b9157611b91612db0565b90508051600014611c84576020810151855260608501805160019190611c60908390612d98565b90525060808501805160019190611c78908390612d98565b90525061132985611173565b50505b8260a0015151600003611c9d5750600192915050565b50600092915050565b600080611cba611cb585611929565b6122d1565b90506000611cca611cb586611929565b602083015190915060fc1c6002819003611d8b57600060018451611cee9190612d81565b90506000611d008560018460006123ba565b90506000611d19886020015189606001518560006123ba565b905084805190602001208860a001518051906020012003611d83578080519060200120828051906020012003611d585760019650505050505050610739565b80516020820120611d688361249e565b8051906020012003611d835760019650505050505050610739565b505050611f54565b80600303611e3d576000611da4846000865160016123ba565b602087015160608801518151929350600092611dce929190611dc7908290612d81565b60006123ba565b905083805190602001208760a001518051906020012003611e36578080519060200120828051906020012003611e0c57600195505050505050610739565b80516020820120611e1c836125d5565b8051906020012003611e3657600195505050505050610739565b5050611f54565b80600003611f0357600060018451611e559190612d81565b90506000611e678560018460006123ba565b90506000611e80886020015189606001518560006123ba565b9050808051906020012082805190602001201480611eb2575080516020820120611ea98361249e565b80519060200120145b15611d835760208501518852606088018051849190611ed2908390612d98565b90525060808801805160019190611eea908390612d98565b905250611ef688611173565b9650505050505050610739565b80600103611f1c5782516000611e6785828460016123ba565b60405162461bcd60e51b815260206004820152600d60248201526c24b73b30b634b210383937b7b360991b6044820152606401610ad4565b8460a0015151600003611f6d5760019350505050610739565b60009350505050610739565b8282825b60208110611fb55781518352611f94602084612d98565b9250611fa1602083612d98565b9150611fae602082612d81565b9050611f7d565b60006001611fc4836020612d81565b611fd090610100612f0c565b611fda9190612d81565b925184518416931916929092179092525050505050565b8051600090810361200457506000919050565b6020820151805160001a9060c0821015612022575060009392505050565b5060019392505050565b8051600090811a60808110156120455750600092915050565b60b8811080612060575060c08110801590612060575060f881105b1561206e5750600192915050565b60c081101561209b57612083600160b8612f2c565b6120909060ff1682612d81565b610b1d906001612d98565b612083600160f8612f2c565b805180516020820151600092916120bd91612d98565b836020015110915050919050565b80516000908190811a60808110156120e65760019150611531565b60b881101561210c576120fa608082612d81565b612105906001612d98565b9150611531565b60c08110156121395760b78103600185019450806020036101000a85510460018201810193505050611531565b60f881101561214d576120fa60c082612d81565b60019390930151602084900360f7016101000a900490920160f5190192915050565b606061217a82611ff1565b6121d05760405162461bcd60e51b815260206004820152602160248201527f524c504465636f646572206974657261746f72206973206e6f742061206c69736044820152601d60fa1b6064820152608401610ad4565b60006121db83611a85565b90506000816001600160401b038111156121f7576121f7612802565b60405190808252806020026020018201604052801561223c57816020015b60408051808201909152600080825260208201528152602001906001900390816122155790505b509050600061224e856020015161202c565b856020015161225d9190612d98565b90506000805b848110156122c657612274836120cb565b915060405180604001604052808381526020018481525084828151811061229d5761229d612db0565b60209081029190910101526122b28284612d98565b9250806122be81612dc6565b915050612263565b509195945050505050565b805160609061232c5760405162461bcd60e51b815260206004820152602160248201527f524c504465636f64657220746f427974657320696e76616c6964206c656e67746044820152600d60fb1b6064820152608401610ad4565b600061233b836020015161202c565b9050600081846000015161234f9190612d81565b90506000816001600160401b0381111561236b5761236b612802565b6040519080825280601f01601f191660200182016040528015612395576020820181803683370190505b509050600081602001905061150b8487602001516123b39190612d98565b8285612736565b606060006123c9602085612df5565b905060006123d8602086612f18565b6123e3906008612e09565b6123ef90610100612d81565b9050602060008080886001600160401b0381111561240f5761240f612802565b6040519080825280601f01601f191660200182016040528015612439576020820181803683370190505b5090508a8a019150871561246357818401516001600160fc1b031681850152602090930192600192505b825b86811015612483578285015182860152602090940193600101612465565b5083820151851c851b84820152505050505050949350505050565b60606000825160026124b09190612e09565b90506000816001600160401b038111156124cc576124cc612802565b6040519080825280601f01601f1916602001820160405280156124f6576020820181803683370190505b50905060005b84518110156125cd5760008061254087848151811061251d5761251d612db0565b01602001516001600160f81b031916600481901c916001600160fc1b0390911690565b90925090508184612552856002612e09565b8151811061256257612562612db0565b60200101906001600160f81b031916908160001a9053508084612586856002612e09565b612591906001612d98565b815181106125a1576125a1612db0565b60200101906001600160f81b031916908160001a905350505080806125c590612dc6565b9150506124fc565b509392505050565b606060006001835160026125e99190612e09565b6125f39190612d81565b90506000816001600160401b0381111561260f5761260f612802565b6040519080825280601f01601f191660200182016040528015612639576020820181803683370190505b5090508360008151811061264f5761264f612db0565b602001015160f81c60f81b8160008151811061266d5761266d612db0565b60200101906001600160f81b031916908160001a90535060015b84518110156125cd576000806126a887848151811061251d5761251d612db0565b9092509050818460016126bc866002612e09565b6126c69190612d81565b815181106126d6576126d6612db0565b60200101906001600160f81b031916908160001a90535080846126fa856002612e09565b8151811061270a5761270a612db0565b60200101906001600160f81b031916908160001a9053505050808061272e90612dc6565b915050612687565b8060000361274357505050565b6020811061277b578251825261275a602084612d98565b9250612767602083612d98565b9150612774602082612d81565b9050612743565b6001816020036101000a03801984511681845116915080821784525050505050565b80356001600160a01b038116811461047c57600080fd5b6000806000606084860312156127c957600080fd5b6127d28461279d565b95602085013595506040909401359392505050565b6000602082840312156127f957600080fd5b610b1d8261279d565b634e487b7160e01b600052604160045260246000fd5b60405160c081016001600160401b038111828210171561283a5761283a612802565b60405290565b60405161024081016001600160401b038111828210171561283a5761283a612802565b604051601f8201601f191681016001600160401b038111828210171561288b5761288b612802565b604052919050565b600082601f8301126128a457600080fd5b81356001600160401b038111156128bd576128bd612802565b6128d0601f8201601f1916602001612863565b8181528460208386010111156128e557600080fd5b816020850160208301376000918101602001919091529392505050565b80356001600160401b038116811461047c57600080fd5b600082601f83011261292a57600080fd5b813560206001600160401b038083111561294657612946612802565b8260051b612955838201612863565b938452858101830193838101908886111561296f57600080fd5b84880192505b858310156129ab5782358481111561298d5760008081fd5b61299b8a87838c0101612893565b8352509184019190840190612975565b98975050505050505050565b600060c082840312156129c957600080fd5b6129d1612818565b90508135815260208201356001600160401b03808211156129f157600080fd5b6129fd85838601612893565b60208401526040840135915080821115612a1657600080fd5b612a2285838601612919565b6040840152606084013560608401526080840135608084015260a0840135915080821115612a4f57600080fd5b50612a5c84828501612893565b60a08301525092915050565b60008060008060008060c08789031215612a8157600080fd5b612a8a8761279d565b955060208701359450604087013593506060870135925060808701356001600160401b0380821115612abb57600080fd5b90880190610240828b031215612ad057600080fd5b612ad8612840565b823581526020830135602082015260408301356040820152612afc6060840161279d565b60608201526080830135608082015260a083013560a082015260c083013560c082015260e083013582811115612b3157600080fd5b612b3d8c828601612893565b60e083015250610100838101359082015261012080840135908201526101408084013590820152610160808401359082015261018080840135908201526101a08084013583811115612b8e57600080fd5b612b9a8d828701612893565b8284015250506101c08084013581830152506101e0612bba818501612902565b908201526102008381013590820152610220928301359281019290925290925060a08801359080821115612bed57600080fd5b50612bfa89828a016129b7565b9150509295509295509295565b60008060208385031215612c1a57600080fd5b82356001600160401b0380821115612c3157600080fd5b818501915085601f830112612c4557600080fd5b813581811115612c5457600080fd5b8660208260051b8501011115612c6957600080fd5b60209290920196919550909350505050565b6000602080830181845280855180835260408601915060408160051b87010192508387016000805b83811015612d0857888603603f1901855282518051808852835b81811015612cd8578281018a01518982018b01528901612cbd565b81811115612ce857848a838b0101525b50601f01601f191696909601870195509386019391860191600101612ca3565b509398975050505050505050565b60008060408385031215612d2957600080fd5b612d328361279d565b946020939093013593505050565b634e487b7160e01b600052601160045260246000fd5b60006001600160601b03808316818516808303821115612d7857612d78612d40565b01949350505050565b600082821015612d9357612d93612d40565b500390565b60008219821115612dab57612dab612d40565b500190565b634e487b7160e01b600052603260045260246000fd5b600060018201612dd857612dd8612d40565b5060010190565b634e487b7160e01b600052601260045260246000fd5b600082612e0457612e04612ddf565b500490565b6000816000190483118215151615612e2357612e23612d40565b500290565b600181815b80851115612e63578160001904821115612e4957612e49612d40565b80851615612e5657918102915b93841c9390800290612e2d565b509250929050565b600082612e7a57506001610739565b81612e8757506000610739565b8160018114612e9d5760028114612ea757612ec3565b6001915050610739565b60ff841115612eb857612eb8612d40565b50506001821b610739565b5060208310610133831016604e8410600b8410161715612ee6575081810a610739565b612ef08383612e28565b8060001904821115612f0457612f04612d40565b029392505050565b6000610b1d8383612e6b565b600082612f2757612f27612ddf565b500690565b600060ff821660ff841680821015612f4657612f46612d40565b9003939250505056fea26469706673582212208ddf5daa46df4d7e31c2c47d0ec19fc4b005895ae2fdf8ba765b4c536d41f5bf64736f6c634300080f0033",
    "linkReferences": {}
  },
  "methodIdentifiers": {
    "claimWin(address,uint256)": "cd18a2a6",
    "getBidDepositAddr(address,uint256,bytes32)": "ce3a3710",
    "initialize(address,uint256,bytes32)": "1b7ce041",
    "multicall(bytes[])": "ac9650d8",
    "owner()": "8da5cb5b",
    "pendingPulls(address)": "e736ca59",
    "pull(address)": "52d11238",
    "reveal(address,uint256,bytes32,uint256,(bytes32,bytes32,bytes32,address,bytes32,bytes32,bytes32,bytes,uint256,uint256,uint256,uint256,uint256,bytes,bytes32,uint64,uint256,uint256),(bytes32,bytes,bytes[],uint256,uint256,bytes))": "6d9b53d7",
    "revealStartBlock()": "becddc3d",
    "sndBid()": "68c10505",
    "startReveal()": "ad72202b",
    "storedBlockHash()": "b0bf74c1",
    "tokenCommit()": "6aacd616",
    "topBid()": "636bf730",
    "topBidder()": "01333f06",
    "transferOwnership(address)": "f2fde38b"
  },
  "id": 15
}