{
  "abi": [
    {
      "inputs": [],
      "stateMutability": "nonpayable",
      "type": "constructor"
    },
    {
      "inputs": [],
      "name": "AlreadyInitialized",
      "type": "error"
    },
    {
      "inputs": [],
      "name": "InvalidInitialOwner",
      "type": "error"
    },
    {
      "inputs": [],
      "name": "InvalidProof",
      "type": "error"
    },
    {
      "inputs": [],
      "name": "InvalidRevealStartBlock",
      "type": "error"
    },
    {
      "inputs": [],
      "name": "InvalidTokenCommit",
      "type": "error"
    },
    {
      "inputs": [],
      "name": "NotOwner",
      "type": "error"
    },
    {
      "inputs": [],
      "name": "NotYetReveal",
      "type": "error"
    },
    {
      "inputs": [],
      "name": "NotYetRevealBlock",
      "type": "error"
    },
    {
      "inputs": [],
      "name": "RevealAlreadyStarted",
      "type": "error"
    },
    {
      "inputs": [],
      "name": "RevealNotOver",
      "type": "error"
    },
    {
      "inputs": [],
      "name": "RevealOver",
      "type": "error"
    },
    {
      "inputs": [],
      "name": "TransferOwnerToZero",
      "type": "error"
    },
    {
      "anonymous": false,
      "inputs": [
        {
          "indexed": true,
          "internalType": "address",
          "name": "account",
          "type": "address"
        },
        {
          "indexed": false,
          "internalType": "uint256",
          "name": "sendAmount",
          "type": "uint256"
        },
        {
          "indexed": false,
          "internalType": "uint256",
          "name": "totalPendingAmount",
          "type": "uint256"
        }
      ],
      "name": "AsyncSend",
      "type": "event"
    },
    {
      "anonymous": false,
      "inputs": [
        {
          "indexed": true,
          "internalType": "address",
          "name": "topBidder",
          "type": "address"
        },
        {
          "indexed": true,
          "internalType": "address",
          "name": "bidder",
          "type": "address"
        },
        {
          "indexed": false,
          "internalType": "uint256",
          "name": "topBid",
          "type": "uint256"
        },
        {
          "indexed": false,
          "internalType": "uint256",
          "name": "sndBid",
          "type": "uint256"
        },
        {
          "indexed": false,
          "internalType": "uint256",
          "name": "bid",
          "type": "uint256"
        }
      ],
      "name": "BidRevealed",
      "type": "event"
    },
    {
      "anonymous": false,
      "inputs": [
        {
          "indexed": true,
          "internalType": "address",
          "name": "previousOwner",
          "type": "address"
        },
        {
          "indexed": true,
          "internalType": "address",
          "name": "newOwner",
          "type": "address"
        }
      ],
      "name": "OwnershipTransferred",
      "type": "event"
    },
    {
      "anonymous": false,
      "inputs": [],
      "name": "RevealStarted",
      "type": "event"
    },
    {
      "anonymous": false,
      "inputs": [
        {
          "indexed": true,
          "internalType": "address",
          "name": "winner",
          "type": "address"
        },
        {
          "indexed": false,
          "internalType": "uint256",
          "name": "paidBid",
          "type": "uint256"
        },
        {
          "indexed": false,
          "internalType": "uint256",
          "name": "refund",
          "type": "uint256"
        }
      ],
      "name": "WinClaimed",
      "type": "event"
    },
    {
      "inputs": [
        {
          "internalType": "address",
          "name": "_collection",
          "type": "address"
        },
        {
          "internalType": "uint256",
          "name": "_tokenId",
          "type": "uint256"
        }
      ],
      "name": "claimWin",
      "outputs": [],
      "stateMutability": "nonpayable",
      "type": "function"
    },
    {
      "inputs": [
        {
          "internalType": "address",
          "name": "_bidder",
          "type": "address"
        },
        {
          "internalType": "uint256",
          "name": "_bid",
          "type": "uint256"
        },
        {
          "internalType": "bytes32",
          "name": "_subSalt",
          "type": "bytes32"
        }
      ],
      "name": "getBidDepositAddr",
      "outputs": [
        {
          "internalType": "bytes32",
          "name": "salt",
          "type": "bytes32"
        },
        {
          "internalType": "address",
          "name": "depositAddr",
          "type": "address"
        }
      ],
      "stateMutability": "view",
      "type": "function"
    },
    {
      "inputs": [
        {
          "internalType": "address",
          "name": "_initialOwner",
          "type": "address"
        },
        {
          "internalType": "uint256",
          "name": "_revealStartBlock",
          "type": "uint256"
        },
        {
          "internalType": "bytes32",
          "name": "_tokenCommit",
          "type": "bytes32"
        }
      ],
      "name": "initialize",
      "outputs": [],
      "stateMutability": "nonpayable",
      "type": "function"
    },
    {
      "inputs": [
        {
          "internalType": "bytes[]",
          "name": "data",
          "type": "bytes[]"
        }
      ],
      "name": "multicall",
      "outputs": [
        {
          "internalType": "bytes[]",
          "name": "results",
          "type": "bytes[]"
        }
      ],
      "stateMutability": "payable",
      "type": "function"
    },
    {
      "inputs": [],
      "name": "owner",
      "outputs": [
        {
          "internalType": "address",
          "name": "",
          "type": "address"
        }
      ],
      "stateMutability": "view",
      "type": "function"
    },
    {
      "inputs": [
        {
          "internalType": "address",
          "name": "",
          "type": "address"
        }
      ],
      "name": "pendingPulls",
      "outputs": [
        {
          "internalType": "uint256",
          "name": "",
          "type": "uint256"
        }
      ],
      "stateMutability": "view",
      "type": "function"
    },
    {
      "inputs": [
        {
          "internalType": "address",
          "name": "_addr",
          "type": "address"
        }
      ],
      "name": "pull",
      "outputs": [
        {
          "internalType": "uint256",
          "name": "totalPull",
          "type": "uint256"
        }
      ],
      "stateMutability": "nonpayable",
      "type": "function"
    },
    {
      "inputs": [
        {
          "internalType": "address",
          "name": "_bidder",
          "type": "address"
        },
        {
          "internalType": "uint256",
          "name": "_bid",
          "type": "uint256"
        },
        {
          "internalType": "bytes32",
          "name": "_subSalt",
          "type": "bytes32"
        },
        {
          "internalType": "uint256",
          "name": "_balAtSnapshot",
          "type": "uint256"
        },
        {
          "internalType": "bytes",
          "name": "_proof",
          "type": "bytes"
        }
      ],
      "name": "reveal",
      "outputs": [
        {
          "internalType": "address",
          "name": "bidAddr",
          "type": "address"
        }
      ],
      "stateMutability": "nonpayable",
      "type": "function"
    },
    {
      "inputs": [],
      "name": "revealStartBlock",
      "outputs": [
        {
          "internalType": "uint96",
          "name": "",
          "type": "uint96"
        }
      ],
      "stateMutability": "view",
      "type": "function"
    },
    {
      "inputs": [],
      "name": "sndBid",
      "outputs": [
        {
          "internalType": "uint128",
          "name": "",
          "type": "uint128"
        }
      ],
      "stateMutability": "view",
      "type": "function"
    },
    {
      "inputs": [],
      "name": "startReveal",
      "outputs": [],
      "stateMutability": "nonpayable",
      "type": "function"
    },
    {
      "inputs": [],
      "name": "storedBlockHash",
      "outputs": [
        {
          "internalType": "bytes32",
          "name": "",
          "type": "bytes32"
        }
      ],
      "stateMutability": "view",
      "type": "function"
    },
    {
      "inputs": [],
      "name": "tokenCommit",
      "outputs": [
        {
          "internalType": "bytes32",
          "name": "",
          "type": "bytes32"
        }
      ],
      "stateMutability": "view",
      "type": "function"
    },
    {
      "inputs": [],
      "name": "topBid",
      "outputs": [
        {
          "internalType": "uint128",
          "name": "",
          "type": "uint128"
        }
      ],
      "stateMutability": "view",
      "type": "function"
    },
    {
      "inputs": [],
      "name": "topBidder",
      "outputs": [
        {
          "internalType": "address",
          "name": "",
          "type": "address"
        }
      ],
      "stateMutability": "view",
      "type": "function"
    },
    {
      "inputs": [
        {
          "internalType": "address",
          "name": "_newOwner",
          "type": "address"
        }
      ],
      "name": "transferOwnership",
      "outputs": [],
      "stateMutability": "nonpayable",
      "type": "function"
    },
    {
      "stateMutability": "payable",
      "type": "receive"
    }
  ],
  "bytecode": {
    "object": "0x608060405234801561001057600080fd5b5061deae600160a01b0319600155610ebd8061002d6000396000f3fe6080604052600436106100f75760003560e01c8063ad72202b1161008a578063ce3a371011610059578063ce3a3710146102cf578063d188987f1461030c578063e736ca591461032c578063f2fde38b1461035957600080fd5b8063ad72202b14610245578063b0bf74c11461025a578063becddc3d14610270578063cd18a2a6146102af57600080fd5b806368c10505116100c657806368c10505146101c85780636aacd616146101ef5780638da5cb5b14610205578063ac9650d81461022557600080fd5b806301333f06146101035780631b7ce0411461014057806352d1123814610162578063636bf7301461019057600080fd5b366100fe57005b600080fd5b34801561010f57600080fd5b50600354610123906001600160a01b031681565b6040516001600160a01b0390911681526020015b60405180910390f35b34801561014c57600080fd5b5061016061015b366004610b9a565b610379565b005b34801561016e57600080fd5b5061018261017d366004610bcd565b61043a565b604051908152602001610137565b34801561019c57600080fd5b506004546101b0906001600160801b031681565b6040516001600160801b039091168152602001610137565b3480156101d457600080fd5b506004546101b090600160801b90046001600160801b031681565b3480156101fb57600080fd5b5061018260055481565b34801561021157600080fd5b50600154610123906001600160a01b031681565b610238610233366004610be8565b610481565b6040516101379190610c5d565b34801561025157600080fd5b50610160610500565b34801561026657600080fd5b5061018260025481565b34801561027c57600080fd5b5060015461029790600160a01b90046001600160601b031681565b6040516001600160601b039091168152602001610137565b3480156102bb57600080fd5b506101606102ca366004610cf8565b6105b9565b3480156102db57600080fd5b506102ef6102ea366004610b9a565b610742565b604080519283526001600160a01b03909116602083015201610137565b34801561031857600080fd5b50610123610327366004610d38565b610792565b34801561033857600080fd5b50610182610347366004610bcd565b60006020819052908152604090205481565b34801561036557600080fd5b50610160610374366004610bcd565b6109a7565b6001546001600160a01b0316156103a25760405162dc149f60e41b815260040160405180910390fd5b6001600160a01b0383166103c95760405163267eaa8160e21b815260040160405180910390fd5b4382116103e9576040516317a53f2360e11b815260040160405180910390fd5b6001600160a01b038316600160a01b6001600160601b0384160281176001556040516000907f8be0079c531659141344cd1fd0a4f28419497f9722a3daafe3b4186f6b6457e0908290a36005555050565b6001600160a01b038116600090815260208190526040902054801561047c576001600160a01b03821660009081526020819052604081205561047c8282610a5d565b919050565b606081156104fa5750604051818152602001600582901b808483378101805b825185018035602082018337600080823584305af46104c3573d6000803e3d6000fd5b508083526020830192503d81523d6000602083013e3d01603f0167ffffffffffffffe0168183106104a05760405192508060405250505b92915050565b6002541561052157604051635da6a4a160e11b815260040160405180910390fd5b600154600160a01b90046001600160601b031643811061055457604051638bbce02d60e01b815260040160405180910390fd5b61056961056361010043610e2d565b82610ab7565b40600255600180546001600160a01b0316600160a01b436001600160601b0316021790556040517f3bcc93d35219aa0512d7c0d1ca10b0231f473e3d5f9396877d1b7215ee0ab3d590600090a150565b60015443906105da90600160a01b90046001600160601b0316611c20610e44565b6001600160601b0316106106015760405163b317752160e01b815260040160405180910390fd5b6000828152602082905260409020600554811461063157604051630309809960e31b815260040160405180910390fd5b600354604051632142170760e11b81523060048201526001600160a01b03918216602482015260448101849052908416906342842e0e90606401600060405180830381600087803b15801561068557600080fd5b505af1158015610699573d6000803e3d6000fd5b5050600060058190556003546004546001600160a01b0390911693506001600160801b03600160801b8204811693506106d491849116610e2d565b90506106e08382610acf565b6001546106f6906001600160a01b031683610acf565b60408051838152602081018390526001600160a01b038516917f32c1ffa2d64a48a72c24ae3e096197a2f77804340592434296903bbf76981632910160405180910390a2505050505050565b673d3d3d3d47335af16000526008601820604080519485526020850193909352918301526060822030601484015260ff83526034830181905260548301919091526055601f909201919091209091565b600154600090819043906107b890600160a01b90046001600160601b0316611c20610e44565b6001600160601b031610156107e0576040516328c79d5560e11b815260040160405180910390fd5b6002548061080157604051630a542d4360e01b815260040160405180910390fd5b60008061080f8a8a8a610742565b90925090506000479050673d3d3d3d47335af160005282600860186000f595506108398147610e2d565b945050505050600061084b8786610b74565b905060006108598284610e2d565b6004546003549192506001600160801b0380821692600160801b90920416906001600160a01b0316828511156108ee5761089c81846001600160801b0316610acf565b5050600380546001600160a01b038c166001600160a01b03199091161790556001600160801b03838116908216600160801b026fffffffffffffffffffffffffffffffff19161760045582908a610933565b600454600160801b90046001600160801b031685111561092657600480546001600160801b03808816600160801b0291161790558491505b6109308585610e6f565b93505b61093d8c85610acf565b604080516001600160801b038086168252841660208201529081018690526001600160a01b03808e1691908316907f7f749dfc3f8dd6da5dd55f4ded584b12b39d0dc9f9333f3a467f75d44a4e96cb9060600160405180910390a350505050505095945050505050565b6001600160a01b0381166109ce57604051634e08abab60e01b815260040160405180910390fd5b6001546001600160a01b03163381146109fa576040516330cd747160e01b815260040160405180910390fd5b816001600160a01b0316816001600160a01b03167f8be0079c531659141344cd1fd0a4f28419497f9722a3daafe3b4186f6b6457e060405160405180910390a350600180546001600160a01b0319166001600160a01b0392909216919091179055565b600080600080600085875af1905080610ab25760405162461bcd60e51b815260206004820152601360248201527211551217d514905394d1915497d19052531151606a1b604482015260640160405180910390fd5b505050565b6000818311610ac65781610ac8565b825b9392505050565b8015610b70576001600160a01b038216610af2576001546001600160a01b031691505b6001600160a01b038216600090815260208190526040812054610b16908390610e6f565b6001600160a01b03841660008181526020818152604091829020849055815186815290810184905292935090917fb00a932bf706109fd167206f270b85d06508f652cd920fc2ace38b3dd5df955f910160405180910390a2505b5050565b6000818310610ac65781610ac8565b80356001600160a01b038116811461047c57600080fd5b600080600060608486031215610baf57600080fd5b610bb884610b83565b95602085013595506040909401359392505050565b600060208284031215610bdf57600080fd5b610ac882610b83565b60008060208385031215610bfb57600080fd5b823567ffffffffffffffff80821115610c1357600080fd5b818501915085601f830112610c2757600080fd5b813581811115610c3657600080fd5b8660208260051b8501011115610c4b57600080fd5b60209290920196919550909350505050565b6000602080830181845280855180835260408601915060408160051b87010192508387016000805b83811015610cea57888603603f1901855282518051808852835b81811015610cba578281018a01518982018b01528901610c9f565b81811115610cca57848a838b0101525b50601f01601f191696909601870195509386019391860191600101610c85565b509398975050505050505050565b60008060408385031215610d0b57600080fd5b610d1483610b83565b946020939093013593505050565b634e487b7160e01b600052604160045260246000fd5b600080600080600060a08688031215610d5057600080fd5b610d5986610b83565b9450602086013593506040860135925060608601359150608086013567ffffffffffffffff80821115610d8b57600080fd5b818801915088601f830112610d9f57600080fd5b813581811115610db157610db1610d22565b604051601f8201601f19908116603f01168101908382118183101715610dd957610dd9610d22565b816040528281528b6020848701011115610df257600080fd5b8260208601602083013760006020848301015280955050505050509295509295909350565b634e487b7160e01b600052601160045260246000fd5b600082821015610e3f57610e3f610e17565b500390565b60006001600160601b03808316818516808303821115610e6657610e66610e17565b01949350505050565b60008219821115610e8257610e82610e17565b50019056fea26469706673582212207e2cfbcaca1e34b3fccd644b172bd7df00196bc91ece57761fae2354d059923764736f6c634300080f0033",
    "linkReferences": {}
  },
  "methodIdentifiers": {
    "claimWin(address,uint256)": "cd18a2a6",
    "getBidDepositAddr(address,uint256,bytes32)": "ce3a3710",
    "initialize(address,uint256,bytes32)": "1b7ce041",
    "multicall(bytes[])": "ac9650d8",
    "owner()": "8da5cb5b",
    "pendingPulls(address)": "e736ca59",
    "pull(address)": "52d11238",
    "reveal(address,uint256,bytes32,uint256,bytes)": "d188987f",
    "revealStartBlock()": "becddc3d",
    "sndBid()": "68c10505",
    "startReveal()": "ad72202b",
    "storedBlockHash()": "b0bf74c1",
    "tokenCommit()": "6aacd616",
    "topBid()": "636bf730",
    "topBidder()": "01333f06",
    "transferOwnership(address)": "f2fde38b"
  },
  "id": 15
}