{
  "abi": [
    {
      "inputs": [],
      "stateMutability": "nonpayable",
      "type": "constructor"
    },
    {
      "inputs": [],
      "name": "AlreadyInitialized",
      "type": "error"
    },
    {
      "inputs": [],
      "name": "InvalidInitialOwner",
      "type": "error"
    },
    {
      "inputs": [],
      "name": "InvalidProof",
      "type": "error"
    },
    {
      "inputs": [],
      "name": "InvalidRevealStartBlock",
      "type": "error"
    },
    {
      "inputs": [],
      "name": "InvalidTokenCommit",
      "type": "error"
    },
    {
      "inputs": [],
      "name": "NotOwner",
      "type": "error"
    },
    {
      "inputs": [],
      "name": "NotYetReveal",
      "type": "error"
    },
    {
      "inputs": [],
      "name": "NotYetRevealBlock",
      "type": "error"
    },
    {
      "inputs": [],
      "name": "RevealAlreadyStarted",
      "type": "error"
    },
    {
      "inputs": [],
      "name": "RevealNotOver",
      "type": "error"
    },
    {
      "inputs": [],
      "name": "RevealOver",
      "type": "error"
    },
    {
      "inputs": [],
      "name": "TransferOwnerToZero",
      "type": "error"
    },
    {
      "anonymous": false,
      "inputs": [
        {
          "indexed": true,
          "internalType": "address",
          "name": "account",
          "type": "address"
        },
        {
          "indexed": false,
          "internalType": "uint256",
          "name": "sendAmount",
          "type": "uint256"
        },
        {
          "indexed": false,
          "internalType": "uint256",
          "name": "totalPendingAmount",
          "type": "uint256"
        }
      ],
      "name": "AsyncSend",
      "type": "event"
    },
    {
      "anonymous": false,
      "inputs": [
        {
          "indexed": true,
          "internalType": "address",
          "name": "topBidder",
          "type": "address"
        },
        {
          "indexed": true,
          "internalType": "address",
          "name": "bidder",
          "type": "address"
        },
        {
          "indexed": false,
          "internalType": "uint256",
          "name": "topBid",
          "type": "uint256"
        },
        {
          "indexed": false,
          "internalType": "uint256",
          "name": "sndBid",
          "type": "uint256"
        },
        {
          "indexed": false,
          "internalType": "uint256",
          "name": "bid",
          "type": "uint256"
        }
      ],
      "name": "BidRevealed",
      "type": "event"
    },
    {
      "anonymous": false,
      "inputs": [
        {
          "indexed": true,
          "internalType": "address",
          "name": "previousOwner",
          "type": "address"
        },
        {
          "indexed": true,
          "internalType": "address",
          "name": "newOwner",
          "type": "address"
        }
      ],
      "name": "OwnershipTransferred",
      "type": "event"
    },
    {
      "anonymous": false,
      "inputs": [],
      "name": "RevealStarted",
      "type": "event"
    },
    {
      "anonymous": false,
      "inputs": [
        {
          "indexed": true,
          "internalType": "address",
          "name": "winner",
          "type": "address"
        },
        {
          "indexed": false,
          "internalType": "uint256",
          "name": "paidBid",
          "type": "uint256"
        },
        {
          "indexed": false,
          "internalType": "uint256",
          "name": "refund",
          "type": "uint256"
        }
      ],
      "name": "WinClaimed",
      "type": "event"
    },
    {
      "inputs": [
        {
          "internalType": "address",
          "name": "_collection",
          "type": "address"
        },
        {
          "internalType": "uint256",
          "name": "_tokenId",
          "type": "uint256"
        }
      ],
      "name": "claimWin",
      "outputs": [],
      "stateMutability": "nonpayable",
      "type": "function"
    },
    {
      "inputs": [
        {
          "internalType": "address",
          "name": "_bidder",
          "type": "address"
        },
        {
          "internalType": "uint256",
          "name": "_bid",
          "type": "uint256"
        },
        {
          "internalType": "bytes32",
          "name": "_subSalt",
          "type": "bytes32"
        }
      ],
      "name": "getBidDepositAddr",
      "outputs": [
        {
          "internalType": "bytes32",
          "name": "salt",
          "type": "bytes32"
        },
        {
          "internalType": "address",
          "name": "depositAddr",
          "type": "address"
        }
      ],
      "stateMutability": "view",
      "type": "function"
    },
    {
      "inputs": [
        {
          "internalType": "address",
          "name": "_initialOwner",
          "type": "address"
        },
        {
          "internalType": "uint256",
          "name": "_revealStartBlock",
          "type": "uint256"
        },
        {
          "internalType": "bytes32",
          "name": "_tokenCommit",
          "type": "bytes32"
        }
      ],
      "name": "initialize",
      "outputs": [],
      "stateMutability": "nonpayable",
      "type": "function"
    },
    {
      "inputs": [
        {
          "internalType": "bytes[]",
          "name": "data",
          "type": "bytes[]"
        }
      ],
      "name": "multicall",
      "outputs": [
        {
          "internalType": "bytes[]",
          "name": "results",
          "type": "bytes[]"
        }
      ],
      "stateMutability": "payable",
      "type": "function"
    },
    {
      "inputs": [],
      "name": "owner",
      "outputs": [
        {
          "internalType": "address",
          "name": "",
          "type": "address"
        }
      ],
      "stateMutability": "view",
      "type": "function"
    },
    {
      "inputs": [
        {
          "internalType": "address",
          "name": "",
          "type": "address"
        }
      ],
      "name": "pendingPulls",
      "outputs": [
        {
          "internalType": "uint256",
          "name": "",
          "type": "uint256"
        }
      ],
      "stateMutability": "view",
      "type": "function"
    },
    {
      "inputs": [
        {
          "internalType": "address",
          "name": "_addr",
          "type": "address"
        }
      ],
      "name": "pull",
      "outputs": [
        {
          "internalType": "uint256",
          "name": "totalPull",
          "type": "uint256"
        }
      ],
      "stateMutability": "nonpayable",
      "type": "function"
    },
    {
      "inputs": [
        {
          "internalType": "address",
          "name": "_bidder",
          "type": "address"
        },
        {
          "internalType": "uint256",
          "name": "_bid",
          "type": "uint256"
        },
        {
          "internalType": "bytes32",
          "name": "_subSalt",
          "type": "bytes32"
        },
        {
          "internalType": "uint256",
          "name": "_balAtSnapshot",
          "type": "uint256"
        },
        {
          "components": [
            {
              "internalType": "bytes32",
              "name": "hash",
              "type": "bytes32"
            },
            {
              "internalType": "bytes32",
              "name": "parentHash",
              "type": "bytes32"
            },
            {
              "internalType": "bytes32",
              "name": "sha3Uncles",
              "type": "bytes32"
            },
            {
              "internalType": "address",
              "name": "miner",
              "type": "address"
            },
            {
              "internalType": "bytes32",
              "name": "stateRoot",
              "type": "bytes32"
            },
            {
              "internalType": "bytes32",
              "name": "transactionsRoot",
              "type": "bytes32"
            },
            {
              "internalType": "bytes32",
              "name": "receiptsRoot",
              "type": "bytes32"
            },
            {
              "internalType": "bytes",
              "name": "logsBloom",
              "type": "bytes"
            },
            {
              "internalType": "uint256",
              "name": "difficulty",
              "type": "uint256"
            },
            {
              "internalType": "uint256",
              "name": "number",
              "type": "uint256"
            },
            {
              "internalType": "uint256",
              "name": "gasLimit",
              "type": "uint256"
            },
            {
              "internalType": "uint256",
              "name": "gasUsed",
              "type": "uint256"
            },
            {
              "internalType": "uint256",
              "name": "timestamp",
              "type": "uint256"
            },
            {
              "internalType": "bytes",
              "name": "extraData",
              "type": "bytes"
            },
            {
              "internalType": "bytes32",
              "name": "mixHash",
              "type": "bytes32"
            },
            {
              "internalType": "uint64",
              "name": "nonce",
              "type": "uint64"
            },
            {
              "internalType": "uint256",
              "name": "totalDifficulty",
              "type": "uint256"
            }
          ],
          "internalType": "struct EthereumDecoder.BlockHeader",
          "name": "_header",
          "type": "tuple"
        },
        {
          "components": [
            {
              "internalType": "bytes32",
              "name": "expectedRoot",
              "type": "bytes32"
            },
            {
              "internalType": "bytes",
              "name": "key",
              "type": "bytes"
            },
            {
              "internalType": "bytes[]",
              "name": "proof",
              "type": "bytes[]"
            },
            {
              "internalType": "uint256",
              "name": "keyIndex",
              "type": "uint256"
            },
            {
              "internalType": "uint256",
              "name": "proofIndex",
              "type": "uint256"
            },
            {
              "internalType": "bytes",
              "name": "expectedValue",
              "type": "bytes"
            }
          ],
          "internalType": "struct MPT.MerkleProof",
          "name": "_accountDataProof",
          "type": "tuple"
        }
      ],
      "name": "reveal",
      "outputs": [
        {
          "internalType": "address",
          "name": "bidAddr",
          "type": "address"
        }
      ],
      "stateMutability": "nonpayable",
      "type": "function"
    },
    {
      "inputs": [],
      "name": "revealStartBlock",
      "outputs": [
        {
          "internalType": "uint96",
          "name": "",
          "type": "uint96"
        }
      ],
      "stateMutability": "view",
      "type": "function"
    },
    {
      "inputs": [],
      "name": "sndBid",
      "outputs": [
        {
          "internalType": "uint128",
          "name": "",
          "type": "uint128"
        }
      ],
      "stateMutability": "view",
      "type": "function"
    },
    {
      "inputs": [],
      "name": "startReveal",
      "outputs": [],
      "stateMutability": "nonpayable",
      "type": "function"
    },
    {
      "inputs": [],
      "name": "storedBlockHash",
      "outputs": [
        {
          "internalType": "bytes32",
          "name": "",
          "type": "bytes32"
        }
      ],
      "stateMutability": "view",
      "type": "function"
    },
    {
      "inputs": [],
      "name": "tokenCommit",
      "outputs": [
        {
          "internalType": "bytes32",
          "name": "",
          "type": "bytes32"
        }
      ],
      "stateMutability": "view",
      "type": "function"
    },
    {
      "inputs": [],
      "name": "topBid",
      "outputs": [
        {
          "internalType": "uint128",
          "name": "",
          "type": "uint128"
        }
      ],
      "stateMutability": "view",
      "type": "function"
    },
    {
      "inputs": [],
      "name": "topBidder",
      "outputs": [
        {
          "internalType": "address",
          "name": "",
          "type": "address"
        }
      ],
      "stateMutability": "view",
      "type": "function"
    },
    {
      "inputs": [
        {
          "internalType": "address",
          "name": "_newOwner",
          "type": "address"
        }
      ],
      "name": "transferOwnership",
      "outputs": [],
      "stateMutability": "nonpayable",
      "type": "function"
    },
    {
      "stateMutability": "payable",
      "type": "receive"
    }
  ],
  "bytecode": {
    "object": "0x608060405234801561001057600080fd5b5061deae600160a01b0319600155612ef38061002d6000396000f3fe6080604052600436106100f75760003560e01c8063ad72202b1161008a578063cd18a2a611610059578063cd18a2a6146102cf578063ce3a3710146102ef578063e736ca591461032c578063f2fde38b1461035957600080fd5b8063ad72202b14610245578063b0bf74c11461025a578063b0d331c114610270578063becddc3d1461029057600080fd5b806368c10505116100c657806368c10505146101c85780636aacd616146101ef5780638da5cb5b14610205578063ac9650d81461022557600080fd5b806301333f06146101035780631b7ce0411461014057806352d1123814610162578063636bf7301461019057600080fd5b366100fe57005b600080fd5b34801561010f57600080fd5b50600354610123906001600160a01b031681565b6040516001600160a01b0390911681526020015b60405180910390f35b34801561014c57600080fd5b5061016061015b36600461272d565b610379565b005b34801561016e57600080fd5b5061018261017d366004612760565b61043a565b604051908152602001610137565b34801561019c57600080fd5b506004546101b0906001600160801b031681565b6040516001600160801b039091168152602001610137565b3480156101d457600080fd5b506004546101b090600160801b90046001600160801b031681565b3480156101fb57600080fd5b5061018260055481565b34801561021157600080fd5b50600154610123906001600160a01b031681565b61023861023336600461277b565b610481565b60405161013791906127ef565b34801561025157600080fd5b50610160610500565b34801561026657600080fd5b5061018260025481565b34801561027c57600080fd5b5061012361028b366004612af0565b6105b9565b34801561029c57600080fd5b506001546102b790600160a01b90046001600160601b031681565b6040516001600160601b039091168152602001610137565b3480156102db57600080fd5b506101606102ea366004612c84565b6107f8565b3480156102fb57600080fd5b5061030f61030a36600461272d565b610981565b604080519283526001600160a01b03909116602083015201610137565b34801561033857600080fd5b50610182610347366004612760565b60006020819052908152604090205481565b34801561036557600080fd5b50610160610374366004612760565b6109d1565b6001546001600160a01b0316156103a25760405162dc149f60e41b815260040160405180910390fd5b6001600160a01b0383166103c95760405163267eaa8160e21b815260040160405180910390fd5b4382116103e9576040516317a53f2360e11b815260040160405180910390fd5b6001600160a01b038316600160a01b6001600160601b0384160281176001556040516000907f8be0079c531659141344cd1fd0a4f28419497f9722a3daafe3b4186f6b6457e0908290a36005555050565b6001600160a01b038116600090815260208190526040902054801561047c576001600160a01b03821660009081526020819052604081205561047c8282610a87565b919050565b606081156104fa5750604051818152602001600582901b808483378101805b825185018035602082018337600080823584305af46104c3573d6000803e3d6000fd5b508083526020830192503d81523d6000602083013e3d01603f0167ffffffffffffffe0168183106104a05760405192508060405250505b92915050565b6002541561052157604051635da6a4a160e11b815260040160405180910390fd5b600154600160a01b90046001600160601b031643811061055457604051638bbce02d60e01b815260040160405180910390fd5b61056961056361010043612cc4565b82610ae2565b40600255600180546001600160a01b0316600160a01b436001600160601b0316021790556040517f3bcc93d35219aa0512d7c0d1ca10b0231f473e3d5f9396877d1b7215ee0ab3d590600090a150565b600154600090819043906105df90600160a01b90046001600160601b0316611c20612cdb565b6001600160601b03161015610607576040516328c79d5560e11b815260040160405180910390fd5b6002548061062857604051630a542d4360e01b815260040160405180910390fd5b6000806106368b8b8b610981565b9150915061064787878a8487610afa565b610664576040516309bde33960e01b815260040160405180910390fd5b6000479050673d3d3d3d47335af160005282600860186000f595506106898147612cc4565b945050505050600061069b8887610b24565b905060006106a98284612cc4565b6004546003549192506001600160801b0380821692600160801b90920416906001600160a01b03168285111561073e576106ec81846001600160801b0316610b33565b5050600380546001600160a01b038d166001600160a01b03199091161790556001600160801b03838116908216600160801b026fffffffffffffffffffffffffffffffff19161760045582908b610783565b600454600160801b90046001600160801b031685111561077657600480546001600160801b03808816600160801b0291161790558491505b6107808585612d06565b93505b61078d8d85610b33565b604080516001600160801b038086168252841660208201529081018690526001600160a01b03808f1691908316907f7f749dfc3f8dd6da5dd55f4ded584b12b39d0dc9f9333f3a467f75d44a4e96cb9060600160405180910390a35050505050509695505050505050565b600154439061081990600160a01b90046001600160601b0316611c20612cdb565b6001600160601b0316106108405760405163b317752160e01b815260040160405180910390fd5b6000828152602082905260409020600554811461087057604051630309809960e31b815260040160405180910390fd5b600354604051632142170760e11b81523060048201526001600160a01b03918216602482015260448101849052908416906342842e0e90606401600060405180830381600087803b1580156108c457600080fd5b505af11580156108d8573d6000803e3d6000fd5b5050600060058190556003546004546001600160a01b0390911693506001600160801b03600160801b82048116935061091391849116612cc4565b905061091f8382610b33565b600154610935906001600160a01b031683610b33565b60408051838152602081018390526001600160a01b038516917f32c1ffa2d64a48a72c24ae3e096197a2f77804340592434296903bbf76981632910160405180910390a2505050505050565b673d3d3d3d47335af16000526008601820604080519485526020850193909352918301526060822030601484015260ff83526034830181905260548301919091526055601f909201919091209091565b6001600160a01b0381166109f857604051634e08abab60e01b815260040160405180910390fd5b6001546001600160a01b0316338114610a24576040516330cd747160e01b815260040160405180910390fd5b816001600160a01b0316816001600160a01b03167f8be0079c531659141344cd1fd0a4f28419497f9722a3daafe3b4186f6b6457e060405160405180910390a350600180546001600160a01b0319166001600160a01b0392909216919091179055565b600080600080600085875af1905080610add5760405162461bcd60e51b815260206004820152601360248201527211551217d514905394d1915497d19052531151606a1b60448201526064015b60405180910390fd5b505050565b6000818311610af15781610af3565b825b9392505050565b600081610b0687610bd8565b148015610b1a5750610b1a86868686610bf1565b9695505050505050565b6000818310610af15781610af3565b8015610bd4576001600160a01b038216610b56576001546001600160a01b031691505b6001600160a01b038216600090815260208190526040812054610b7a908390612d06565b6001600160a01b03841660008181526020818152604091829020849055815186815290810184905292935090917fb00a932bf706109fd167206f270b85d06508f652cd920fc2ace38b3dd5df955f910160405180910390a2505b5050565b6000610be382610d54565b805190602001209050919050565b8251608085015160009114610c0857506000610d4c565b60408051600480825260a08201909252600091816020015b6060815260200190600190039081610c20579050509050610c41600061109e565b81600081518110610c5457610c54612d1e565b6020026020010181905250610c688461109e565b81600181518110610c7b57610c7b612d1e565b6020026020010181905250610caf7f56e81f171bcc55a6ff8345e692c0f86e5b48e01b996cadc001622fb5e363b42161109e565b81600281518110610cc257610cc2612d1e565b6020026020010181905250610cf67fc5d2460186f7233c927e7db2dcc703c0e500b653ca82273b7bfad8045d85a47061109e565b81600381518110610d0957610d09612d1e565b60200260200101819052508460a0015180519060200120610d29826110b1565b8051906020012014610d3f576000915050610d4c565b610d48856110d5565b9150505b949350505050565b60408051600f808252610200820190925260609160009190816020015b6060815260200190600190039081610d71579050509050610db68360200151604051602001610da291815260200190565b6040516020818303038152906040526112c9565b81600081518110610dc957610dc9612d1e565b6020026020010181905250610dee8360400151604051602001610da291815260200190565b81600181518110610e0157610e01612d1e565b6020026020010181905250610e198360600151611319565b81600281518110610e2c57610e2c612d1e565b6020026020010181905250610e518360800151604051602001610da291815260200190565b81600381518110610e6457610e64612d1e565b6020026020010181905250610e898360a00151604051602001610da291815260200190565b81600481518110610e9c57610e9c612d1e565b6020026020010181905250610ec18360c00151604051602001610da291815260200190565b81600581518110610ed457610ed4612d1e565b6020026020010181905250610eec8360e001516112c9565b81600681518110610eff57610eff612d1e565b6020026020010181905250610f1883610100015161109e565b81600781518110610f2b57610f2b612d1e565b6020026020010181905250610f4483610120015161109e565b81600881518110610f5757610f57612d1e565b6020026020010181905250610f7083610140015161109e565b81600981518110610f8357610f83612d1e565b6020026020010181905250610f9c83610160015161109e565b81600a81518110610faf57610faf612d1e565b6020026020010181905250610fc883610180015161109e565b81600b81518110610fdb57610fdb612d1e565b6020026020010181905250610ff4836101a001516112c9565b81600c8151811061100757611007612d1e565b602002602001018190525061102d836101c00151604051602001610da291815260200190565b81600d8151811061104057611040612d1e565b6020026020010181905250611077836101e00151604051602001610da2919060c09190911b6001600160c01b031916815260080190565b81600e8151811061108a5761108a612d1e565b6020026020010181905250610af3816110b1565b60606104fa6110ac8361133c565b6112c9565b606060006110be83611476565b9050610af36110cf825160c06115a9565b8261175f565b60008082604001518360800151815181106110f2576110f2612d1e565b6020026020010151905060006111376111328360408051808201825260008082526020918201528151808301909252825182529182019181019190915290565b6117dc565b905083606001516000036111af57835182516020840120146111aa5760405162461bcd60e51b815260206004820152602660248201527f7665726966795472696550726f6f6620726f6f74206e6f6465206861736820696044820152651b9d985b1a5960d21b6064820152608401610ad4565b611269565b60208251101561121c5760006111cc6111c78361188b565b61192b565b855190915081146112165760405162461bcd60e51b81526020600482015260146024820152733b32b934b33caa3934b2a83937b7b3101e10199960611b6044820152606401610ad4565b50611269565b835182516020840120146112695760405162461bcd60e51b81526020600482015260146024820152737665726966795472696550726f6f6620656c736560601b6044820152606401610ad4565b600061127882600001516119e7565b9050806011036112945761128b85611a6c565b95945050505050565b806002036112a65761128b8286611c08565b8460a00151516000036112be57506001949350505050565b506000949350505050565b606080825160011480156112f857506080836000815181106112ed576112ed612d1e565b016020015160f81c11155b156113045750816104fa565b610af3611313845160806115a9565b8461175f565b60408051600560a21b8318601482015260348101909152606090610af3816112c9565b6040805160208082528183019092526060916000919060208201818036833701905050905082602082015260005b60208110156113ad5781818151811061138557611385612d1e565b01602001516001600160f81b0319166000036113ad57806113a581612d34565b91505061136a565b60006113ba826020612cc4565b6001600160401b038111156113d1576113d161288a565b6040519080825280601f01601f1916602001820160405280156113fb576020820181803683370190505b50905060005b815181101561146d57838361141581612d34565b94508151811061142757611427612d1e565b602001015160f81c60f81b82828151811061144457611444612d1e565b60200101906001600160f81b031916908160001a9053508061146581612d34565b915050611401565b50949350505050565b6060815160000361149a5760408051600080825260208201909252905b5092915050565b6000805b83518110156114e1578381815181106114b9576114b9612d1e565b602002602001015151826114cd9190612d06565b9150806114d981612d34565b91505061149e565b6000826001600160401b038111156114fb576114fb61288a565b6040519080825280601f01601f191660200182016040528015611525576020820181803683370190505b50600092509050602081015b855183101561146d57600086848151811061154e5761154e612d1e565b60200260200101519050600060208201905061156c83828451611edb565b87858151811061157e5761157e612d1e565b602002602001015151836115929190612d06565b9250505082806115a190612d34565b935050611531565b606080603884101561161357604080516001808252818301909252906020820181803683370190505090506115de8385612d06565b601f1a60f81b816000815181106115f7576115f7612d1e565b60200101906001600160f81b031916908160001a905350610af3565b600060015b6116228187612d63565b15611648578161163181612d34565b9250611641905061010082612d77565b9050611618565b611653826001612d06565b6001600160401b0381111561166a5761166a61288a565b6040519080825280601f01601f191660200182016040528015611694576020820181803683370190505b5092506116a18583612d06565b6116ac906037612d06565b601f1a60f81b836000815181106116c5576116c5612d1e565b60200101906001600160f81b031916908160001a905350600190505b818111611756576101006116f58284612cc4565b61170190610100612e7a565b61170b9088612d63565b6117159190612e86565b601f1a60f81b83828151811061172d5761172d612d1e565b60200101906001600160f81b031916908160001a9053508061174e81612d34565b9150506116e1565b50509392505050565b6060806040519050835180825260208201818101602087015b81831015611790578051835260209283019201611778565b50855184518101855292509050808201602086015b818310156117bd5780518352602092830192016117a5565b508651929092011591909101601f01601f191660405250905092915050565b604080516080810182526000918101828152606082018390528152602081019190915261180882611f53565b6118545760405162461bcd60e51b815260206004820152601f60248201527f524c504465636f646572206974657261746f72206973206e6f74206c697374006044820152606401610ad4565b60006118638360200151611f8e565b83602001516118729190612d06565b6040805180820190915293845260208401525090919050565b60408051808201909152600080825260208201526118a882612009565b6118f45760405162461bcd60e51b815260206004820152601f60248201527f524c504465636f646572206974657261746f7220686173206e6f206e657874006044820152606401610ad4565b602082015160006119048261202d565b90506119108183612d06565b60209485015260408051808201909152908152928301525090565b80516000901580159061194057508151602110155b61198c5760405162461bcd60e51b815260206004820181905260248201527f524c504465636f64657220746f55696e7420696e76616c6964206c656e6774686044820152606401610ad4565b600061199b8360200151611f8e565b905060008184600001516119af9190612cc4565b90506000808386602001516119c49190612d06565b905080519150602083101561146d57506020919091036101000a90049392505050565b805160009081036119fa57506000919050565b600080611a0a8460200151611f8e565b8460200151611a199190612d06565b9050600084600001518560200151611a319190612d06565b90505b80821015611a6357611a458261202d565b611a4f9083612d06565b915082611a5b81612d34565b935050611a34565b50909392505050565b6000808260400151836080015181518110611a8957611a89612d1e565b60200260200101519050826020015151836060015110611b2b576000611b00611ae1611adc8460408051808201825260008082526020918201528151808301909252825182529182019181019190915290565b6120d1565b601081518110611af357611af3612d1e565b6020026020010151612233565b90508360a0015180519060200120818051906020012003611b25575060019392505050565b50611be9565b60008360200151846060015181518110611b4757611b47612d1e565b016020015160f81c90506000611b9b611b8a611adc8560408051808201825260008082526020918201528151808301909252825182529182019181019190915290565b8381518110611af357611af3612d1e565b90508051600014611be6576020810151855260608501805160019190611bc2908390612d06565b90525060808501805160019190611bda908390612d06565b90525061128b856110d5565b50505b8260a0015151600003611bff5750600192915050565b50600092915050565b600080611c1c611c178561188b565b612233565b90506000611c2c611c178661188b565b602083015190915060fc1c6002819003611ced57600060018451611c509190612cc4565b90506000611c6285600184600061231c565b90506000611c7b8860200151896060015185600061231c565b905084805190602001208860a001518051906020012003611ce5578080519060200120828051906020012003611cba57600196505050505050506104fa565b80516020820120611cca83612400565b8051906020012003611ce557600196505050505050506104fa565b505050611eb6565b80600303611d9f576000611d068460008651600161231c565b602087015160608801518151929350600092611d30929190611d29908290612cc4565b600061231c565b905083805190602001208760a001518051906020012003611d98578080519060200120828051906020012003611d6e576001955050505050506104fa565b80516020820120611d7e83612537565b8051906020012003611d98576001955050505050506104fa565b5050611eb6565b80600003611e6557600060018451611db79190612cc4565b90506000611dc985600184600061231c565b90506000611de28860200151896060015185600061231c565b9050808051906020012082805190602001201480611e14575080516020820120611e0b83612400565b80519060200120145b15611ce55760208501518852606088018051849190611e34908390612d06565b90525060808801805160019190611e4c908390612d06565b905250611e58886110d5565b96505050505050506104fa565b80600103611e7e5782516000611dc9858284600161231c565b60405162461bcd60e51b815260206004820152600d60248201526c24b73b30b634b210383937b7b360991b6044820152606401610ad4565b8460a0015151600003611ecf57600193505050506104fa565b600093505050506104fa565b8282825b60208110611f175781518352611ef6602084612d06565b9250611f03602083612d06565b9150611f10602082612cc4565b9050611edf565b60006001611f26836020612cc4565b611f3290610100612e7a565b611f3c9190612cc4565b925184518416931916929092179092525050505050565b80516000908103611f6657506000919050565b6020820151805160001a9060c0821015611f84575060009392505050565b5060019392505050565b8051600090811a6080811015611fa75750600092915050565b60b8811080611fc2575060c08110801590611fc2575060f881105b15611fd05750600192915050565b60c0811015611ffd57611fe5600160b8612e9a565b611ff29060ff1682612cc4565b610af3906001612d06565b611fe5600160f8612e9a565b8051805160208201516000929161201f91612d06565b836020015110915050919050565b80516000908190811a60808110156120485760019150611493565b60b881101561206e5761205c608082612cc4565b612067906001612d06565b9150611493565b60c081101561209b5760b78103600185019450806020036101000a85510460018201810193505050611493565b60f88110156120af5761205c60c082612cc4565b60019390930151602084900360f7016101000a900490920160f5190192915050565b60606120dc82611f53565b6121325760405162461bcd60e51b815260206004820152602160248201527f524c504465636f646572206974657261746f72206973206e6f742061206c69736044820152601d60fa1b6064820152608401610ad4565b600061213d836119e7565b90506000816001600160401b038111156121595761215961288a565b60405190808252806020026020018201604052801561219e57816020015b60408051808201909152600080825260208201528152602001906001900390816121775790505b50905060006121b08560200151611f8e565b85602001516121bf9190612d06565b90506000805b84811015612228576121d68361202d565b91506040518060400160405280838152602001848152508482815181106121ff576121ff612d1e565b60209081029190910101526122148284612d06565b92508061222081612d34565b9150506121c5565b509195945050505050565b805160609061228e5760405162461bcd60e51b815260206004820152602160248201527f524c504465636f64657220746f427974657320696e76616c6964206c656e67746044820152600d60fb1b6064820152608401610ad4565b600061229d8360200151611f8e565b905060008184600001516122b19190612cc4565b90506000816001600160401b038111156122cd576122cd61288a565b6040519080825280601f01601f1916602001820160405280156122f7576020820181803683370190505b509050600081602001905061146d8487602001516123159190612d06565b8285612698565b6060600061232b602085612d63565b9050600061233a602086612e86565b612345906008612d77565b61235190610100612cc4565b9050602060008080886001600160401b038111156123715761237161288a565b6040519080825280601f01601f19166020018201604052801561239b576020820181803683370190505b5090508a8a01915087156123c557818401516001600160fc1b031681850152602090930192600192505b825b868110156123e55782850151828601526020909401936001016123c7565b5083820151851c851b84820152505050505050949350505050565b60606000825160026124129190612d77565b90506000816001600160401b0381111561242e5761242e61288a565b6040519080825280601f01601f191660200182016040528015612458576020820181803683370190505b50905060005b845181101561252f576000806124a287848151811061247f5761247f612d1e565b01602001516001600160f81b031916600481901c916001600160fc1b0390911690565b909250905081846124b4856002612d77565b815181106124c4576124c4612d1e565b60200101906001600160f81b031916908160001a90535080846124e8856002612d77565b6124f3906001612d06565b8151811061250357612503612d1e565b60200101906001600160f81b031916908160001a9053505050808061252790612d34565b91505061245e565b509392505050565b6060600060018351600261254b9190612d77565b6125559190612cc4565b90506000816001600160401b038111156125715761257161288a565b6040519080825280601f01601f19166020018201604052801561259b576020820181803683370190505b509050836000815181106125b1576125b1612d1e565b602001015160f81c60f81b816000815181106125cf576125cf612d1e565b60200101906001600160f81b031916908160001a90535060015b845181101561252f5760008061260a87848151811061247f5761247f612d1e565b90925090508184600161261e866002612d77565b6126289190612cc4565b8151811061263857612638612d1e565b60200101906001600160f81b031916908160001a905350808461265c856002612d77565b8151811061266c5761266c612d1e565b60200101906001600160f81b031916908160001a9053505050808061269090612d34565b9150506125e9565b806000036126a557505050565b602081106126dd57825182526126bc602084612d06565b92506126c9602083612d06565b91506126d6602082612cc4565b90506126a5565b600060016126ec836020612cc4565b6126f890610100612e7a565b6127029190612cc4565b935183518516941916939093179091525050565b80356001600160a01b038116811461047c57600080fd5b60008060006060848603121561274257600080fd5b61274b84612716565b95602085013595506040909401359392505050565b60006020828403121561277257600080fd5b610af382612716565b6000806020838503121561278e57600080fd5b82356001600160401b03808211156127a557600080fd5b818501915085601f8301126127b957600080fd5b8135818111156127c857600080fd5b8660208260051b85010111156127dd57600080fd5b60209290920196919550909350505050565b6000602080830181845280855180835260408601915060408160051b87010192508387016000805b8381101561287c57888603603f1901855282518051808852835b8181101561284c578281018a01518982018b01528901612831565b8181111561285c57848a838b0101525b50601f01601f191696909601870195509386019391860191600101612817565b509398975050505050505050565b634e487b7160e01b600052604160045260246000fd5b60405160c081016001600160401b03811182821017156128c2576128c261288a565b60405290565b60405161022081016001600160401b03811182821017156128c2576128c261288a565b604051601f8201601f191681016001600160401b03811182821017156129135761291361288a565b604052919050565b600082601f83011261292c57600080fd5b81356001600160401b038111156129455761294561288a565b612958601f8201601f19166020016128eb565b81815284602083860101111561296d57600080fd5b816020850160208301376000918101602001919091529392505050565b80356001600160401b038116811461047c57600080fd5b600082601f8301126129b257600080fd5b813560206001600160401b03808311156129ce576129ce61288a565b8260051b6129dd8382016128eb565b93845285810183019383810190888611156129f757600080fd5b84880192505b85831015612a3357823584811115612a155760008081fd5b612a238a87838c010161291b565b83525091840191908401906129fd565b98975050505050505050565b600060c08284031215612a5157600080fd5b612a596128a0565b90508135815260208201356001600160401b0380821115612a7957600080fd5b612a858583860161291b565b60208401526040840135915080821115612a9e57600080fd5b612aaa858386016129a1565b6040840152606084013560608401526080840135608084015260a0840135915080821115612ad757600080fd5b50612ae48482850161291b565b60a08301525092915050565b60008060008060008060c08789031215612b0957600080fd5b612b1287612716565b955060208701359450604087013593506060870135925060808701356001600160401b0380821115612b4357600080fd5b90880190610220828b031215612b5857600080fd5b612b606128c8565b823581526020830135602082015260408301356040820152612b8460608401612716565b60608201526080830135608082015260a083013560a082015260c083013560c082015260e083013582811115612bb957600080fd5b612bc58c82860161291b565b60e083015250610100838101359082015261012080840135908201526101408084013590820152610160808401359082015261018080840135908201526101a08084013583811115612c1657600080fd5b612c228d82870161291b565b8284015250506101c08084013581830152506101e0612c4281850161298a565b90820152610200928301359281019290925290925060a08801359080821115612c6a57600080fd5b50612c7789828a01612a3f565b9150509295509295509295565b60008060408385031215612c9757600080fd5b612ca083612716565b946020939093013593505050565b634e487b7160e01b600052601160045260246000fd5b600082821015612cd657612cd6612cae565b500390565b60006001600160601b03808316818516808303821115612cfd57612cfd612cae565b01949350505050565b60008219821115612d1957612d19612cae565b500190565b634e487b7160e01b600052603260045260246000fd5b600060018201612d4657612d46612cae565b5060010190565b634e487b7160e01b600052601260045260246000fd5b600082612d7257612d72612d4d565b500490565b6000816000190483118215151615612d9157612d91612cae565b500290565b600181815b80851115612dd1578160001904821115612db757612db7612cae565b80851615612dc457918102915b93841c9390800290612d9b565b509250929050565b600082612de8575060016104fa565b81612df5575060006104fa565b8160018114612e0b5760028114612e1557612e31565b60019150506104fa565b60ff841115612e2657612e26612cae565b50506001821b6104fa565b5060208310610133831016604e8410600b8410161715612e54575081810a6104fa565b612e5e8383612d96565b8060001904821115612e7257612e72612cae565b029392505050565b6000610af38383612dd9565b600082612e9557612e95612d4d565b500690565b600060ff821660ff841680821015612eb457612eb4612cae565b9003939250505056fea2646970667358221220e128f989f6154cdf2cb549783e67fe6b671074c2f431e39dfb2b177c3f07bd1d64736f6c634300080f0033",
    "linkReferences": {}
  },
  "methodIdentifiers": {
    "claimWin(address,uint256)": "cd18a2a6",
    "getBidDepositAddr(address,uint256,bytes32)": "ce3a3710",
    "initialize(address,uint256,bytes32)": "1b7ce041",
    "multicall(bytes[])": "ac9650d8",
    "owner()": "8da5cb5b",
    "pendingPulls(address)": "e736ca59",
    "pull(address)": "52d11238",
    "reveal(address,uint256,bytes32,uint256,(bytes32,bytes32,bytes32,address,bytes32,bytes32,bytes32,bytes,uint256,uint256,uint256,uint256,uint256,bytes,bytes32,uint64,uint256),(bytes32,bytes,bytes[],uint256,uint256,bytes))": "b0d331c1",
    "revealStartBlock()": "becddc3d",
    "sndBid()": "68c10505",
    "startReveal()": "ad72202b",
    "storedBlockHash()": "b0bf74c1",
    "tokenCommit()": "6aacd616",
    "topBid()": "636bf730",
    "topBidder()": "01333f06",
    "transferOwnership(address)": "f2fde38b"
  },
  "id": 15
}